{
  "_format": "hh-sol-artifact-1",
  "contractName": "MockLedgity",
  "sourceName": "contracts/_mock/MockTokens.sol",
  "abi": [
    {
      "inputs": [],
      "stateMutability": "nonpayable",
      "type": "constructor"
    },
    {
      "anonymous": false,
      "inputs": [
        {
          "indexed": true,
          "internalType": "address",
          "name": "_owner",
          "type": "address"
        },
        {
          "indexed": true,
          "internalType": "address",
          "name": "_spender",
          "type": "address"
        },
        {
          "indexed": false,
          "internalType": "uint256",
          "name": "_value",
          "type": "uint256"
        }
      ],
      "name": "Approval",
      "type": "event"
    },
    {
      "anonymous": false,
      "inputs": [
        {
          "indexed": true,
          "internalType": "address",
          "name": "_from",
          "type": "address"
        },
        {
          "indexed": true,
          "internalType": "address",
          "name": "_to",
          "type": "address"
        },
        {
          "indexed": false,
          "internalType": "uint256",
          "name": "_value",
          "type": "uint256"
        }
      ],
      "name": "Transfer",
      "type": "event"
    },
    {
      "inputs": [
        {
          "internalType": "address",
          "name": "",
          "type": "address"
        },
        {
          "internalType": "address",
          "name": "",
          "type": "address"
        }
      ],
      "name": "allowance",
      "outputs": [
        {
          "internalType": "uint256",
          "name": "",
          "type": "uint256"
        }
      ],
      "stateMutability": "view",
      "type": "function"
    },
    {
      "inputs": [
        {
          "internalType": "address",
          "name": "_spender",
          "type": "address"
        },
        {
          "internalType": "uint256",
          "name": "_value",
          "type": "uint256"
        }
      ],
      "name": "approve",
      "outputs": [
        {
          "internalType": "bool",
          "name": "success",
          "type": "bool"
        }
      ],
      "stateMutability": "nonpayable",
      "type": "function"
    },
    {
      "inputs": [
        {
          "internalType": "address",
          "name": "",
          "type": "address"
        }
      ],
      "name": "balanceOf",
      "outputs": [
        {
          "internalType": "uint256",
          "name": "",
          "type": "uint256"
        }
      ],
      "stateMutability": "view",
      "type": "function"
    },
    {
      "inputs": [
        {
          "internalType": "uint256",
          "name": "amount",
          "type": "uint256"
        }
      ],
      "name": "burn",
      "outputs": [
        {
          "internalType": "bool",
          "name": "",
          "type": "bool"
        }
      ],
      "stateMutability": "nonpayable",
      "type": "function"
    },
    {
      "inputs": [],
      "name": "decimals",
      "outputs": [
        {
          "internalType": "uint8",
          "name": "",
          "type": "uint8"
        }
      ],
      "stateMutability": "view",
      "type": "function"
    },
    {
      "inputs": [
        {
          "internalType": "address",
          "name": "account",
          "type": "address"
        },
        {
          "internalType": "uint256",
          "name": "amount",
          "type": "uint256"
        }
      ],
      "name": "mint",
      "outputs": [],
      "stateMutability": "nonpayable",
      "type": "function"
    },
    {
      "inputs": [],
      "name": "name",
      "outputs": [
        {
          "internalType": "string",
          "name": "",
          "type": "string"
        }
      ],
      "stateMutability": "view",
      "type": "function"
    },
    {
      "inputs": [
        {
          "internalType": "address",
          "name": "_reserve",
          "type": "address"
        }
      ],
      "name": "setReserve",
      "outputs": [],
      "stateMutability": "nonpayable",
      "type": "function"
    },
    {
      "inputs": [
        {
          "internalType": "uint256",
          "name": "tokenAmount",
          "type": "uint256"
        }
      ],
      "name": "swapAndCollect",
      "outputs": [],
      "stateMutability": "nonpayable",
      "type": "function"
    },
    {
      "inputs": [
        {
          "internalType": "uint256",
          "name": "tokenAmount",
          "type": "uint256"
        }
      ],
      "name": "swapAndLiquify",
      "outputs": [],
      "stateMutability": "nonpayable",
      "type": "function"
    },
    {
      "inputs": [],
      "name": "symbol",
      "outputs": [
        {
          "internalType": "string",
          "name": "",
          "type": "string"
        }
      ],
      "stateMutability": "view",
      "type": "function"
    },
    {
      "inputs": [],
      "name": "totalSupply",
      "outputs": [
        {
          "internalType": "uint256",
          "name": "",
          "type": "uint256"
        }
      ],
      "stateMutability": "view",
      "type": "function"
    },
    {
      "inputs": [
        {
          "internalType": "address",
          "name": "_to",
          "type": "address"
        },
        {
          "internalType": "uint256",
          "name": "_value",
          "type": "uint256"
        }
      ],
      "name": "transfer",
      "outputs": [
        {
          "internalType": "bool",
          "name": "success",
          "type": "bool"
        }
      ],
      "stateMutability": "nonpayable",
      "type": "function"
    },
    {
      "inputs": [
        {
          "internalType": "address",
          "name": "_from",
          "type": "address"
        },
        {
          "internalType": "address",
          "name": "_to",
          "type": "address"
        },
        {
          "internalType": "uint256",
          "name": "_value",
          "type": "uint256"
        }
      ],
      "name": "transferFrom",
      "outputs": [
        {
          "internalType": "bool",
          "name": "success",
          "type": "bool"
        }
      ],
      "stateMutability": "nonpayable",
      "type": "function"
    }
  ],
  "bytecode": "0x608060405234801561001057600080fd5b50604080518082018252600b81526a4d6f636b4c65646769747960a81b6020808301918252835180850190945260048452634d4c545960e01b90840152815191929161005e9160009161007a565b50805161007290600190602084019061007a565b50505061010d565b828054600181600116156101000203166002900490600052602060002090601f016020900481019282601f106100bb57805160ff19168380011785556100e8565b828001600101855582156100e8579182015b828111156100e85782518255916020019190600101906100cd565b506100f49291506100f8565b5090565b5b808211156100f457600081556001016100f9565b6108b08061011c6000396000f3fe608060405234801561001057600080fd5b50600436106100ea5760003560e01c806342966c681161008c57806395d89b411161006657806395d89b41146102c55780639cecc80a146102cd578063a9059cbb146102f3578063dd62ed3e1461031f576100ea565b806342966c681461026557806370a0823114610282578063957de5b4146102a8576100ea565b806318160ddd116100c857806318160ddd146101cb57806323b872dd146101e5578063313ce5671461021b57806340c10f1914610239576100ea565b806306fdde03146100ef578063095ea7b31461016c578063173865ad146101ac575b600080fd5b6100f761034d565b6040805160208082528351818301528351919283929083019185019080838360005b83811015610131578181015183820152602001610119565b50505050905090810190601f16801561015e5780820380516001836020036101000a031916815260200191505b509250505060405180910390f35b6101986004803603604081101561018257600080fd5b506001600160a01b0381351690602001356103db565b604080519115158252519081900360200190f35b6101c9600480360360208110156101c257600080fd5b5035610441565b005b6101d36104a9565b60408051918252519081900360200190f35b610198600480360360608110156101fb57600080fd5b506001600160a01b038135811691602081013590911690604001356104af565b61022361057c565b6040805160ff9092168252519081900360200190f35b6101c96004803603604081101561024f57600080fd5b506001600160a01b038135169060200135610581565b6101986004803603602081101561027b57600080fd5b5035610629565b6101d36004803603602081101561029857600080fd5b50356001600160a01b03166106c4565b6101c9600480360360208110156102be57600080fd5b50356106d6565b6100f7610723565b6101c9600480360360208110156102e357600080fd5b50356001600160a01b031661077d565b6101986004803603604081101561030957600080fd5b506001600160a01b03813516906020013561079f565b6101d36004803603604081101561033557600080fd5b506001600160a01b0381358116916020013516610817565b6000805460408051602060026001851615610100026000190190941693909304601f810184900484028201840190925281815292918301828280156103d35780601f106103a8576101008083540402835291602001916103d3565b820191906000526020600020905b8154815290600101906020018083116103b657829003601f168201915b505050505081565b3360008181526004602090815260408083206001600160a01b038716808552908352818420869055815186815291519394909390927f8c5be1e5ebec7d5bd14f71427d1e84f3dd0314c0f7b2291e5b200ac8c7c3b925928290030190a350600192915050565b6005546040805163173865ad60e01b81526004810184905290516001600160a01b039092169163173865ad9160248082019260009290919082900301818387803b15801561048e57600080fd5b505af11580156104a2573d6000803e3d6000fd5b5050505050565b60025481565b6001600160a01b0383166000908152600360205260408120548211156104d457600080fd5b6001600160a01b038416600090815260046020908152604080832033845290915290205482111561050457600080fd5b6001600160a01b038085166000818152600360209081526040808320805488900390559387168083528483208054880190558383526004825284832033845282529184902080548790039055835186815293519193600080516020610835833981519152929081900390910190a35060019392505050565b601281565b6001600160a01b0382166105dc576040805162461bcd60e51b815260206004820152601f60248201527f45524332303a206d696e7420746f20746865207a65726f206164647265737300604482015290519081900360640190fd5b60028054820190556001600160a01b038216600081815260036020908152604080832080548601905580518581529051600080516020610835833981519152929181900390910190a35050565b336000908152600360205260408120548211156106775760405162461bcd60e51b81526004018080602001828103825260268152602001806108556026913960400191505060405180910390fd5b6002805483900390553360008181526003602090815260408083208054879003905580518681529051929392600080516020610835833981519152929181900390910190a3506001919050565b60036020526000908152604090205481565b6005546040805163255f796d60e21b81526004810184905290516001600160a01b039092169163957de5b49160248082019260009290919082900301818387803b15801561048e57600080fd5b60018054604080516020600284861615610100026000190190941693909304601f810184900484028201840190925281815292918301828280156103d35780601f106103a8576101008083540402835291602001916103d3565b600580546001600160a01b0319166001600160a01b0392909216919091179055565b336000908152600360205260408120548211156107bb57600080fd5b336000818152600360209081526040808320805487900390556001600160a01b0387168084529281902080548701905580518681529051929392600080516020610835833981519152929181900390910190a350600192915050565b60046020908152600092835260408084209091529082529020548156feddf252ad1be2c89b69c2b068fc378daa952ba7f163c4a11628f55a4df523b3ef4d6f636b4c6564676974793a206e6f6e20656e6f75676820746f6b656e7320746f206275726ea264697066735822122048b5e4543f2be214fd9fbc3da1ee05fae3a1a90de55485c83f4fcd98415793f264736f6c634300060c0033",
  "linkReferences": {},
  "deployedLinkReferences": {}
}