{
  "address": "0xCa2483727292bA552AEc12DfEE4dc105CB1376B9",
  "abi": [
    {
      "inputs": [
        {
          "internalType": "address",
          "name": "uniswapRouter",
          "type": "address"
        },
        {
          "internalType": "address",
          "name": "TOKEN",
          "type": "address"
        },
        {
          "internalType": "address",
          "name": "USDC",
          "type": "address"
        },
        {
          "internalType": "address",
          "name": "timelock_",
          "type": "address"
        }
      ],
      "stateMutability": "nonpayable",
      "type": "constructor"
    },
    {
      "anonymous": false,
      "inputs": [
        {
          "indexed": false,
          "internalType": "uint256",
          "name": "tokenAmount",
          "type": "uint256"
        },
        {
          "indexed": false,
          "internalType": "uint256",
          "name": "usdcAmount",
          "type": "uint256"
        }
      ],
      "name": "BuyAndBurn",
      "type": "event"
    },
    {
      "anonymous": false,
      "inputs": [
        {
          "indexed": true,
          "internalType": "address",
          "name": "previousOwner",
          "type": "address"
        },
        {
          "indexed": true,
          "internalType": "address",
          "name": "newOwner",
          "type": "address"
        }
      ],
      "name": "OwnershipTransferred",
      "type": "event"
    },
    {
      "anonymous": false,
      "inputs": [
        {
          "indexed": false,
          "internalType": "uint256",
          "name": "tokenAmount",
          "type": "uint256"
        },
        {
          "indexed": false,
          "internalType": "uint256",
          "name": "usdcAmount",
          "type": "uint256"
        }
      ],
      "name": "SwapAndCollect",
      "type": "event"
    },
    {
      "anonymous": false,
      "inputs": [
        {
          "indexed": false,
          "internalType": "uint256",
          "name": "tokenSwapped",
          "type": "uint256"
        },
        {
          "indexed": false,
          "internalType": "uint256",
          "name": "usdcReceived",
          "type": "uint256"
        },
        {
          "indexed": false,
          "internalType": "uint256",
          "name": "tokensIntoLiqudity",
          "type": "uint256"
        }
      ],
      "name": "SwapAndLiquify",
      "type": "event"
    },
    {
      "inputs": [
        {
          "internalType": "uint256",
          "name": "usdcAmount",
          "type": "uint256"
        }
      ],
      "name": "buyAndBurn",
      "outputs": [],
      "stateMutability": "nonpayable",
      "type": "function"
    },
    {
      "inputs": [],
      "name": "owner",
      "outputs": [
        {
          "internalType": "address",
          "name": "",
          "type": "address"
        }
      ],
      "stateMutability": "view",
      "type": "function"
    },
    {
      "inputs": [],
      "name": "renounceOwnership",
      "outputs": [],
      "stateMutability": "nonpayable",
      "type": "function"
    },
    {
      "inputs": [
        {
          "internalType": "uint256",
          "name": "tokenAmount",
          "type": "uint256"
        }
      ],
      "name": "swapAndCollect",
      "outputs": [],
      "stateMutability": "nonpayable",
      "type": "function"
    },
    {
      "inputs": [
        {
          "internalType": "uint256",
          "name": "tokenAmount",
          "type": "uint256"
        }
      ],
      "name": "swapAndLiquify",
      "outputs": [],
      "stateMutability": "nonpayable",
      "type": "function"
    },
    {
      "inputs": [],
      "name": "timelock",
      "outputs": [
        {
          "internalType": "address",
          "name": "",
          "type": "address"
        }
      ],
      "stateMutability": "view",
      "type": "function"
    },
    {
      "inputs": [],
      "name": "token",
      "outputs": [
        {
          "internalType": "contract ILedgity",
          "name": "",
          "type": "address"
        }
      ],
      "stateMutability": "view",
      "type": "function"
    },
    {
      "inputs": [
        {
          "internalType": "address",
          "name": "newOwner",
          "type": "address"
        }
      ],
      "name": "transferOwnership",
      "outputs": [],
      "stateMutability": "nonpayable",
      "type": "function"
    },
    {
      "inputs": [],
      "name": "uniswapV2Pair",
      "outputs": [
        {
          "internalType": "contract IUniswapV2Pair",
          "name": "",
          "type": "address"
        }
      ],
      "stateMutability": "view",
      "type": "function"
    },
    {
      "inputs": [],
      "name": "uniswapV2Router",
      "outputs": [
        {
          "internalType": "contract IUniswapV2Router02",
          "name": "",
          "type": "address"
        }
      ],
      "stateMutability": "view",
      "type": "function"
    },
    {
      "inputs": [],
      "name": "usdc",
      "outputs": [
        {
          "internalType": "contract IERC20",
          "name": "",
          "type": "address"
        }
      ],
      "stateMutability": "view",
      "type": "function"
    }
  ],
  "transactionHash": "0x3b1821d89e50e41b3af038cdfca0d7aea6e826e677dbdc9e3816d447faf4ea1f",
  "args": [
    "0x7a250d5630B4cF539739dF2C5dAcb4c659F2488D",
    "0x85Ffb35957203dfD12061eAeCD708dB623Bd567C",
    "0xA0b86991c6218b36c1d19D4a2e9Eb0cE3606eB48",
    "0x26944E31ee61CbC8D092884E8e49a96adFe717EA"
  ],
  "solcInputHash": "d6476b1af53dd46707d985cfde03d792",
  "bytecode": "0x60a060405234801561001057600080fd5b506040516200145f3803806200145f8339818101604052608081101561003557600080fd5b5080516020820151604083015160609093015191929091600061005661023b565b600080546001600160a01b0319166001600160a01b0383169081178255604051929350917f8be0079c531659141344cd1fd0a4f28419497f9722a3daafe3b4186f6b6457e0908290a3506001600160a01b0381166100e65760405162461bcd60e51b81526004018080602001828103825260218152602001806200143e6021913960400191505060405180910390fd5b600180546001600160a01b038087166001600160a01b031992831681179093556003805487831690841617905560048054918616919092161781556001600160601b0319606084901b166080526040805163c45a015560e01b8152905163c45a015592828101926020929190829003018186803b15801561016657600080fd5b505afa15801561017a573d6000803e3d6000fd5b505050506040513d602081101561019057600080fd5b5051604080516364e329cb60e11b81526001600160a01b03868116600483015285811660248301529151919092169163c9c653969160448083019260209291908290030181600087803b1580156101e657600080fd5b505af11580156101fa573d6000803e3d6000fd5b505050506040513d602081101561021057600080fd5b5051600280546001600160a01b0319166001600160a01b039092169190911790555061023f92505050565b3390565b60805160601c6111dc62000262600039806102f9528061091552506111dc6000f3fe608060405234801561001057600080fd5b50600436106100a95760003560e01c8063715018a611610071578063715018a61461011e5780638da5cb5b14610126578063957de5b41461012e578063d33219b41461014b578063f2fde38b14610153578063fc0c546a14610179576100a9565b80631694505e146100ae578063173865ad146100d257806334e6436c146100f15780633e413bee1461010e57806349bd5a5e14610116575b600080fd5b6100b6610181565b604080516001600160a01b039092168252519081900360200190f35b6100ef600480360360208110156100e857600080fd5b5035610190565b005b6100ef6004803603602081101561010757600080fd5b50356103c0565b6100b6610786565b6100b6610795565b6100ef6107a4565b6100b6610858565b6100ef6004803603602081101561014457600080fd5b5035610867565b6100b6610913565b6100ef6004803603602081101561016957600080fd5b50356001600160a01b0316610937565b6100b6610a41565b6001546001600160a01b031681565b6003546001600160a01b031633146101ef576040805162461bcd60e51b815260206004820181905260248201527f526573657276653a2063616c6c6572206973206e6f742074686520746f6b656e604482015290519081900360640190fd5b600354604080516370a0823160e01b815230600482015290516000926001600160a01b0316916370a08231916024808301926020929190829003018186803b15801561023a57600080fd5b505afa15801561024e573d6000803e3d6000fd5b505050506040513d602081101561026457600080fd5b505190508180610275816002610a50565b83101561029657610287836002610ab2565b91506102938383610af4565b90505b60006102a182610b36565b6003546002549192506102c1916001600160a01b03918216911685610d70565b6004546002546102de916001600160a01b03908116911683610d70565b600254604080516335313c2160e11b81526001600160a01b037f00000000000000000000000000000000000000000000000000000000000000008116600483015291519190921691636a6278429160248083019260209291908290030181600087803b15801561034d57600080fd5b505af1158015610361573d6000803e3d6000fd5b505050506040513d602081101561037757600080fd5b5050604080518381526020810183905280820185905290517f17bbfb9a6069321b6ded73bd96327c9e6b7212a5cd51ff219cd61370acafb5619181900360600190a15050505050565b6103c8610ec4565b6000546001600160a01b0390811691161461042a576040805162461bcd60e51b815260206004820181905260248201527f4f776e61626c653a2063616c6c6572206973206e6f7420746865206f776e6572604482015290519081900360640190fd5b6040805160028082526060808301845292602083019080368337505060045482519293506001600160a01b03169183915060009061046457fe5b6001600160a01b03928316602091820292909201015260035482519116908290600190811061048f57fe5b6001600160a01b03928316602091820292909201810191909152600354604080516370a0823160e01b8152306004820152905160009492909216926370a0823192602480840193829003018186803b1580156104ea57600080fd5b505afa1580156104fe573d6000803e3d6000fd5b505050506040513d602081101561051457600080fd5b5051600454600154919250610536916001600160a01b03918216911685610ec8565b600154604051635c11d79560e01b8152600481018581526000602483018190523060648401819052426084850181905260a060448601908152885160a487015288516001600160a01b0390971696635c11d795968b968b9594939092909160c40190602080880191028083838b5b838110156105bc5781810151838201526020016105a4565b505050509050019650505050505050600060405180830381600087803b1580156105e557600080fd5b505af11580156105f9573d6000803e3d6000fd5b5050600354604080516370a0823160e01b8152306004820152905160009450610680935085926001600160a01b0316916370a08231916024808301926020929190829003018186803b15801561064e57600080fd5b505afa158015610662573d6000803e3d6000fd5b505050506040513d602081101561067857600080fd5b505190610af4565b60035460408051630852cd8d60e31b81526004810184905290519293506001600160a01b03909116916342966c68916024808201926020929091908290030181600087803b1580156106d157600080fd5b505af11580156106e5573d6000803e3d6000fd5b505050506040513d60208110156106fb57600080fd5b5051610745576040805162461bcd60e51b815260206004820152601460248201527314995cd95c9d994e88189d5c9b8819985a5b195960621b604482015290519081900360640190fd5b604080518281526020810186905281517f3dcdee83a97284b298a1d5197ac6adf342aa15c061ded0d9318e9b7bf6879cd2929181900390910190a150505050565b6004546001600160a01b031681565b6002546001600160a01b031681565b6107ac610ec4565b6000546001600160a01b0390811691161461080e576040805162461bcd60e51b815260206004820181905260248201527f4f776e61626c653a2063616c6c6572206973206e6f7420746865206f776e6572604482015290519081900360640190fd5b600080546040516001600160a01b03909116907f8be0079c531659141344cd1fd0a4f28419497f9722a3daafe3b4186f6b6457e0908390a3600080546001600160a01b0319169055565b6000546001600160a01b031690565b6003546001600160a01b031633146108c6576040805162461bcd60e51b815260206004820181905260248201527f526573657276653a2063616c6c6572206973206e6f742074686520746f6b656e604482015290519081900360640190fd5b60006108d182610b36565b604080518481526020810183905281519293507f0c04c56ec8d6277982721e58bb8ab9b468ae47a1645b3e20c5fac70320bde082929081900390910190a15050565b7f000000000000000000000000000000000000000000000000000000000000000081565b61093f610ec4565b6000546001600160a01b039081169116146109a1576040805162461bcd60e51b815260206004820181905260248201527f4f776e61626c653a2063616c6c6572206973206e6f7420746865206f776e6572604482015290519081900360640190fd5b6001600160a01b0381166109e65760405162461bcd60e51b81526004018080602001828103825260268152602001806111386026913960400191505060405180910390fd5b600080546040516001600160a01b03808516939216917f8be0079c531659141344cd1fd0a4f28419497f9722a3daafe3b4186f6b6457e091a3600080546001600160a01b0319166001600160a01b0392909216919091179055565b6003546001600160a01b031681565b600082610a5f57506000610aac565b82820282848281610a6c57fe5b0414610aa95760405162461bcd60e51b815260040180806020018281038252602181526020018061115e6021913960400191505060405180910390fd5b90505b92915050565b6000610aa983836040518060400160405280601a81526020017f536166654d6174683a206469766973696f6e206279207a65726f000000000000815250611015565b6000610aa983836040518060400160405280601e81526020017f536166654d6174683a207375627472616374696f6e206f766572666c6f7700008152506110b7565b6040805160028082526060808301845260009390929190602083019080368337505060035482519293506001600160a01b031691839150600090610b7657fe5b6001600160a01b039283166020918202929092010152600454825191169082906001908110610ba157fe5b6001600160a01b0392831660209182029290920181019190915260048054604080516370a0823160e01b815230938101939093525160009491909116926370a082319260248082019391829003018186803b158015610bff57600080fd5b505afa158015610c13573d6000803e3d6000fd5b505050506040513d6020811015610c2957600080fd5b5051600354600154919250610c4b916001600160a01b03918216911686610ec8565b600154604051635c11d79560e01b8152600481018681526000602483018190523060648401819052426084850181905260a060448601908152885160a487015288516001600160a01b0390971696635c11d795968c968b9594939092909160c40190602080880191028083838b5b83811015610cd1578181015183820152602001610cb9565b505050509050019650505050505050600060405180830381600087803b158015610cfa57600080fd5b505af1158015610d0e573d6000803e3d6000fd5b505060048054604080516370a0823160e01b815230938101939093525160009450610d67935085926001600160a01b03909216916370a08231916024808301926020929190829003018186803b15801561064e57600080fd5b95945050505050565b604080516001600160a01b038481166024830152604480830185905283518084039091018152606490920183526020820180516001600160e01b031663a9059cbb60e01b178152925182516000946060949389169392918291908083835b60208310610ded5780518252601f199092019160209182019101610dce565b6001836020036101000a0380198251168184511680821785525050505050509050019150506000604051808303816000865af19150503d8060008114610e4f576040519150601f19603f3d011682016040523d82523d6000602084013e610e54565b606091505b5091509150818015610e82575080511580610e825750808060200190516020811015610e7f57600080fd5b50515b610ebd5760405162461bcd60e51b815260040180806020018281038252602881526020018061117f6028913960400191505060405180910390fd5b5050505050565b3390565b604080516001600160a01b038481166024830152604480830185905283518084039091018152606490920183526020820180516001600160e01b031663095ea7b360e01b178152925182516000946060949389169392918291908083835b60208310610f455780518252601f199092019160209182019101610f26565b6001836020036101000a0380198251168184511680821785525050505050509050019150506000604051808303816000865af19150503d8060008114610fa7576040519150601f19603f3d011682016040523d82523d6000602084013e610fac565b606091505b5091509150818015610fda575080511580610fda5750808060200190516020811015610fd757600080fd5b50515b610ebd5760405162461bcd60e51b81526004018080602001828103825260268152602001806111126026913960400191505060405180910390fd5b600081836110a15760405162461bcd60e51b81526004018080602001828103825283818151815260200191508051906020019080838360005b8381101561106657818101518382015260200161104e565b50505050905090810190601f1680156110935780820380516001836020036101000a031916815260200191505b509250505060405180910390fd5b5060008385816110ad57fe5b0495945050505050565b600081848411156111095760405162461bcd60e51b815260206004820181815283516024840152835190928392604490910191908501908083836000831561106657818101518382015260200161104e565b50505090039056fe5361666545524332303a3a73616665417070726f76653a20617070726f7665206661696c65644f776e61626c653a206e6577206f776e657220697320746865207a65726f2061646472657373536166654d6174683a206d756c7469706c69636174696f6e206f766572666c6f775361666545524332303a3a736166655472616e736665723a207472616e73666572206661696c6564a2646970667358221220c32159f0f83f3944fe91e8de70c5fe0d3c99c9b357ae07e80f2f34c9a0a43a7f64736f6c634300060c0033526573657276653a20696e76616c69642074696d656c6f636b2061646472657373",
  "devdoc": {
    "kind": "dev",
    "methods": {
      "buyAndBurn(uint256)": {
        "details": "Returns the remaining number of tokens that `spender` will be allowed to spend on behalf of `owner` through {transferFrom}. This is zero by default. This value changes when {approve} or {transferFrom} are called."
      },
      "owner()": {
        "details": "Returns the address of the current owner."
      },
      "renounceOwnership()": {
        "details": "Leaves the contract without owner. It will not be possible to call `onlyOwner` functions anymore. Can only be called by the current owner. NOTE: Renouncing ownership will leave the contract without an owner, thereby removing any functionality that is only available to the owner."
      },
      "swapAndCollect(uint256)": {
        "details": "Returns the amount of tokens in existence."
      },
      "swapAndLiquify(uint256)": {
        "details": "Returns the amount of tokens owned by `account`."
      },
      "transferOwnership(address)": {
        "details": "Transfers ownership of the contract to a new account (`newOwner`). Can only be called by the current owner."
      }
    },
    "version": 1
  },
  "userdoc": {
    "kind": "user",
    "methods": {},
    "version": 1
  },
  "storageLayout": {
    "storage": [
      {
        "astId": 4601,
        "contract": "contracts/Reserve.sol:Reserve",
        "label": "_owner",
        "offset": 0,
        "slot": "0",
        "type": "t_address"
      },
      {
        "astId": 2800,
        "contract": "contracts/Reserve.sol:Reserve",
        "label": "uniswapV2Router",
        "offset": 0,
        "slot": "1",
        "type": "t_contract(IUniswapV2Router02)4571"
      },
      {
        "astId": 2803,
        "contract": "contracts/Reserve.sol:Reserve",
        "label": "uniswapV2Pair",
        "offset": 0,
        "slot": "2",
        "type": "t_contract(IUniswapV2Pair)4175"
      },
      {
        "astId": 2805,
        "contract": "contracts/Reserve.sol:Reserve",
        "label": "token",
        "offset": 0,
        "slot": "3",
        "type": "t_contract(ILedgity)3748"
      },
      {
        "astId": 2807,
        "contract": "contracts/Reserve.sol:Reserve",
        "label": "usdc",
        "offset": 0,
        "slot": "4",
        "type": "t_contract(IERC20)3735"
      }
    ],
    "types": {
      "t_address": {
        "encoding": "inplace",
        "label": "address",
        "numberOfBytes": "20"
      },
      "t_contract(IERC20)3735": {
        "encoding": "inplace",
        "label": "contract IERC20",
        "numberOfBytes": "20"
      },
      "t_contract(ILedgity)3748": {
        "encoding": "inplace",
        "label": "contract ILedgity",
        "numberOfBytes": "20"
      },
      "t_contract(IUniswapV2Pair)4175": {
        "encoding": "inplace",
        "label": "contract IUniswapV2Pair",
        "numberOfBytes": "20"
      },
      "t_contract(IUniswapV2Router02)4571": {
        "encoding": "inplace",
        "label": "contract IUniswapV2Router02",
        "numberOfBytes": "20"
      }
    }
  }
}