{
  "address": "0x3e4BD9c929e9F0e94F6Ea8FA3de78e53E8CB66b8",
  "abi": [
    {
      "inputs": [],
      "stateMutability": "nonpayable",
      "type": "constructor"
    },
    {
      "anonymous": false,
      "inputs": [
        {
          "indexed": true,
          "internalType": "address",
          "name": "owner",
          "type": "address"
        },
        {
          "indexed": true,
          "internalType": "address",
          "name": "spender",
          "type": "address"
        },
        {
          "indexed": false,
          "internalType": "uint256",
          "name": "value",
          "type": "uint256"
        }
      ],
      "name": "Approval",
      "type": "event"
    },
    {
      "anonymous": false,
      "inputs": [
        {
          "indexed": true,
          "internalType": "address",
          "name": "previousOwner",
          "type": "address"
        },
        {
          "indexed": true,
          "internalType": "address",
          "name": "newOwner",
          "type": "address"
        }
      ],
      "name": "OwnershipTransferred",
      "type": "event"
    },
    {
      "anonymous": false,
      "inputs": [
        {
          "indexed": true,
          "internalType": "address",
          "name": "from",
          "type": "address"
        },
        {
          "indexed": true,
          "internalType": "address",
          "name": "to",
          "type": "address"
        },
        {
          "indexed": false,
          "internalType": "uint256",
          "name": "value",
          "type": "uint256"
        }
      ],
      "name": "Transfer",
      "type": "event"
    },
    {
      "inputs": [
        {
          "internalType": "address",
          "name": "owner",
          "type": "address"
        },
        {
          "internalType": "address",
          "name": "spender",
          "type": "address"
        }
      ],
      "name": "allowance",
      "outputs": [
        {
          "internalType": "uint256",
          "name": "",
          "type": "uint256"
        }
      ],
      "stateMutability": "view",
      "type": "function"
    },
    {
      "inputs": [
        {
          "internalType": "address",
          "name": "spender",
          "type": "address"
        },
        {
          "internalType": "uint256",
          "name": "amount",
          "type": "uint256"
        }
      ],
      "name": "approve",
      "outputs": [
        {
          "internalType": "bool",
          "name": "",
          "type": "bool"
        }
      ],
      "stateMutability": "nonpayable",
      "type": "function"
    },
    {
      "inputs": [
        {
          "internalType": "address",
          "name": "account",
          "type": "address"
        }
      ],
      "name": "balanceOf",
      "outputs": [
        {
          "internalType": "uint256",
          "name": "",
          "type": "uint256"
        }
      ],
      "stateMutability": "view",
      "type": "function"
    },
    {
      "inputs": [
        {
          "internalType": "uint256",
          "name": "amount",
          "type": "uint256"
        }
      ],
      "name": "burn",
      "outputs": [
        {
          "internalType": "bool",
          "name": "",
          "type": "bool"
        }
      ],
      "stateMutability": "nonpayable",
      "type": "function"
    },
    {
      "inputs": [],
      "name": "buyAccumulationFee",
      "outputs": [
        {
          "internalType": "uint128",
          "name": "numerator",
          "type": "uint128"
        },
        {
          "internalType": "uint128",
          "name": "denominator",
          "type": "uint128"
        }
      ],
      "stateMutability": "view",
      "type": "function"
    },
    {
      "inputs": [],
      "name": "decimals",
      "outputs": [
        {
          "internalType": "uint8",
          "name": "",
          "type": "uint8"
        }
      ],
      "stateMutability": "view",
      "type": "function"
    },
    {
      "inputs": [
        {
          "internalType": "address",
          "name": "spender",
          "type": "address"
        },
        {
          "internalType": "uint256",
          "name": "subtractedValue",
          "type": "uint256"
        }
      ],
      "name": "decreaseAllowance",
      "outputs": [
        {
          "internalType": "bool",
          "name": "",
          "type": "bool"
        }
      ],
      "stateMutability": "nonpayable",
      "type": "function"
    },
    {
      "inputs": [
        {
          "internalType": "address",
          "name": "account",
          "type": "address"
        }
      ],
      "name": "excludeAccount",
      "outputs": [],
      "stateMutability": "nonpayable",
      "type": "function"
    },
    {
      "inputs": [],
      "name": "feeDestination",
      "outputs": [
        {
          "internalType": "enum Ledgity.FeeDestination",
          "name": "",
          "type": "uint8"
        }
      ],
      "stateMutability": "view",
      "type": "function"
    },
    {
      "inputs": [],
      "name": "getDexes",
      "outputs": [
        {
          "internalType": "address[]",
          "name": "",
          "type": "address[]"
        }
      ],
      "stateMutability": "view",
      "type": "function"
    },
    {
      "inputs": [],
      "name": "getExcluded",
      "outputs": [
        {
          "internalType": "address[]",
          "name": "",
          "type": "address[]"
        }
      ],
      "stateMutability": "view",
      "type": "function"
    },
    {
      "inputs": [],
      "name": "getExcludedFromDexFee",
      "outputs": [
        {
          "internalType": "address[]",
          "name": "",
          "type": "address[]"
        }
      ],
      "stateMutability": "view",
      "type": "function"
    },
    {
      "inputs": [],
      "name": "getExcludedFromLimits",
      "outputs": [
        {
          "internalType": "address[]",
          "name": "",
          "type": "address[]"
        }
      ],
      "stateMutability": "view",
      "type": "function"
    },
    {
      "inputs": [],
      "name": "inSwapAndLiquify",
      "outputs": [
        {
          "internalType": "bool",
          "name": "",
          "type": "bool"
        }
      ],
      "stateMutability": "view",
      "type": "function"
    },
    {
      "inputs": [
        {
          "internalType": "address",
          "name": "account",
          "type": "address"
        }
      ],
      "name": "includeAccount",
      "outputs": [],
      "stateMutability": "nonpayable",
      "type": "function"
    },
    {
      "inputs": [
        {
          "internalType": "address",
          "name": "spender",
          "type": "address"
        },
        {
          "internalType": "uint256",
          "name": "addedValue",
          "type": "uint256"
        }
      ],
      "name": "increaseAllowance",
      "outputs": [
        {
          "internalType": "bool",
          "name": "",
          "type": "bool"
        }
      ],
      "stateMutability": "nonpayable",
      "type": "function"
    },
    {
      "inputs": [],
      "name": "initialBuyAccumulationFee",
      "outputs": [
        {
          "internalType": "uint128",
          "name": "numerator",
          "type": "uint128"
        },
        {
          "internalType": "uint128",
          "name": "denominator",
          "type": "uint128"
        }
      ],
      "stateMutability": "view",
      "type": "function"
    },
    {
      "inputs": [],
      "name": "initialPrice",
      "outputs": [
        {
          "internalType": "uint256",
          "name": "",
          "type": "uint256"
        }
      ],
      "stateMutability": "view",
      "type": "function"
    },
    {
      "inputs": [],
      "name": "initialSellAccumulationFee",
      "outputs": [
        {
          "internalType": "uint128",
          "name": "numerator",
          "type": "uint128"
        },
        {
          "internalType": "uint128",
          "name": "denominator",
          "type": "uint128"
        }
      ],
      "stateMutability": "view",
      "type": "function"
    },
    {
      "inputs": [],
      "name": "initialSellAtSmallPriceAccumulationFee",
      "outputs": [
        {
          "internalType": "uint128",
          "name": "numerator",
          "type": "uint128"
        },
        {
          "internalType": "uint128",
          "name": "denominator",
          "type": "uint128"
        }
      ],
      "stateMutability": "view",
      "type": "function"
    },
    {
      "inputs": [],
      "name": "initialSellReflectionFee",
      "outputs": [
        {
          "internalType": "uint128",
          "name": "numerator",
          "type": "uint128"
        },
        {
          "internalType": "uint128",
          "name": "denominator",
          "type": "uint128"
        }
      ],
      "stateMutability": "view",
      "type": "function"
    },
    {
      "inputs": [],
      "name": "initialTotalSupply",
      "outputs": [
        {
          "internalType": "uint256",
          "name": "",
          "type": "uint256"
        }
      ],
      "stateMutability": "view",
      "type": "function"
    },
    {
      "inputs": [
        {
          "internalType": "address",
          "name": "priceOracleAddress",
          "type": "address"
        }
      ],
      "name": "initializePriceOracle",
      "outputs": [],
      "stateMutability": "nonpayable",
      "type": "function"
    },
    {
      "inputs": [
        {
          "internalType": "address",
          "name": "reserveAddress",
          "type": "address"
        }
      ],
      "name": "initializeReserve",
      "outputs": [],
      "stateMutability": "nonpayable",
      "type": "function"
    },
    {
      "inputs": [
        {
          "internalType": "address",
          "name": "account",
          "type": "address"
        }
      ],
      "name": "isDex",
      "outputs": [
        {
          "internalType": "bool",
          "name": "",
          "type": "bool"
        }
      ],
      "stateMutability": "view",
      "type": "function"
    },
    {
      "inputs": [
        {
          "internalType": "address",
          "name": "account",
          "type": "address"
        }
      ],
      "name": "isExcluded",
      "outputs": [
        {
          "internalType": "bool",
          "name": "",
          "type": "bool"
        }
      ],
      "stateMutability": "view",
      "type": "function"
    },
    {
      "inputs": [
        {
          "internalType": "address",
          "name": "account",
          "type": "address"
        }
      ],
      "name": "isExcludedFromDexFee",
      "outputs": [
        {
          "internalType": "bool",
          "name": "",
          "type": "bool"
        }
      ],
      "stateMutability": "view",
      "type": "function"
    },
    {
      "inputs": [
        {
          "internalType": "address",
          "name": "account",
          "type": "address"
        }
      ],
      "name": "isExcludedFromLimits",
      "outputs": [
        {
          "internalType": "bool",
          "name": "",
          "type": "bool"
        }
      ],
      "stateMutability": "view",
      "type": "function"
    },
    {
      "inputs": [
        {
          "internalType": "address",
          "name": "",
          "type": "address"
        }
      ],
      "name": "lastTransactionAt",
      "outputs": [
        {
          "internalType": "uint256",
          "name": "",
          "type": "uint256"
        }
      ],
      "stateMutability": "view",
      "type": "function"
    },
    {
      "inputs": [],
      "name": "maxTransactionSizePercent",
      "outputs": [
        {
          "internalType": "uint128",
          "name": "numerator",
          "type": "uint128"
        },
        {
          "internalType": "uint128",
          "name": "denominator",
          "type": "uint128"
        }
      ],
      "stateMutability": "view",
      "type": "function"
    },
    {
      "inputs": [],
      "name": "name",
      "outputs": [
        {
          "internalType": "string",
          "name": "",
          "type": "string"
        }
      ],
      "stateMutability": "view",
      "type": "function"
    },
    {
      "inputs": [],
      "name": "numTokensToSwap",
      "outputs": [
        {
          "internalType": "uint256",
          "name": "",
          "type": "uint256"
        }
      ],
      "stateMutability": "view",
      "type": "function"
    },
    {
      "inputs": [],
      "name": "owner",
      "outputs": [
        {
          "internalType": "address",
          "name": "",
          "type": "address"
        }
      ],
      "stateMutability": "view",
      "type": "function"
    },
    {
      "inputs": [],
      "name": "priceOracle",
      "outputs": [
        {
          "internalType": "contract ILedgityPriceOracle",
          "name": "",
          "type": "address"
        }
      ],
      "stateMutability": "view",
      "type": "function"
    },
    {
      "inputs": [
        {
          "internalType": "uint256",
          "name": "tAmount",
          "type": "uint256"
        }
      ],
      "name": "reflect",
      "outputs": [],
      "stateMutability": "nonpayable",
      "type": "function"
    },
    {
      "inputs": [
        {
          "internalType": "uint256",
          "name": "tAmount",
          "type": "uint256"
        },
        {
          "internalType": "bool",
          "name": "deductTransferFee",
          "type": "bool"
        }
      ],
      "name": "reflectionFromToken",
      "outputs": [
        {
          "internalType": "uint256",
          "name": "",
          "type": "uint256"
        }
      ],
      "stateMutability": "view",
      "type": "function"
    },
    {
      "inputs": [],
      "name": "renounceOwnership",
      "outputs": [],
      "stateMutability": "nonpayable",
      "type": "function"
    },
    {
      "inputs": [],
      "name": "reserve",
      "outputs": [
        {
          "internalType": "contract IReserve",
          "name": "",
          "type": "address"
        }
      ],
      "stateMutability": "view",
      "type": "function"
    },
    {
      "inputs": [],
      "name": "sellAccumulationFee",
      "outputs": [
        {
          "internalType": "uint128",
          "name": "numerator",
          "type": "uint128"
        },
        {
          "internalType": "uint128",
          "name": "denominator",
          "type": "uint128"
        }
      ],
      "stateMutability": "view",
      "type": "function"
    },
    {
      "inputs": [],
      "name": "sellAtSmallPriceAccumulationFee",
      "outputs": [
        {
          "internalType": "uint128",
          "name": "numerator",
          "type": "uint128"
        },
        {
          "internalType": "uint128",
          "name": "denominator",
          "type": "uint128"
        }
      ],
      "stateMutability": "view",
      "type": "function"
    },
    {
      "inputs": [],
      "name": "sellReflectionFee",
      "outputs": [
        {
          "internalType": "uint128",
          "name": "numerator",
          "type": "uint128"
        },
        {
          "internalType": "uint128",
          "name": "denominator",
          "type": "uint128"
        }
      ],
      "stateMutability": "view",
      "type": "function"
    },
    {
      "inputs": [
        {
          "internalType": "uint128",
          "name": "numerator",
          "type": "uint128"
        },
        {
          "internalType": "uint128",
          "name": "denominator",
          "type": "uint128"
        }
      ],
      "name": "setBuyAccumulationFee",
      "outputs": [],
      "stateMutability": "nonpayable",
      "type": "function"
    },
    {
      "inputs": [
        {
          "internalType": "address",
          "name": "target",
          "type": "address"
        },
        {
          "internalType": "bool",
          "name": "dex",
          "type": "bool"
        }
      ],
      "name": "setDex",
      "outputs": [],
      "stateMutability": "nonpayable",
      "type": "function"
    },
    {
      "inputs": [
        {
          "internalType": "enum Ledgity.FeeDestination",
          "name": "fd",
          "type": "uint8"
        }
      ],
      "name": "setFeeDestination",
      "outputs": [],
      "stateMutability": "nonpayable",
      "type": "function"
    },
    {
      "inputs": [
        {
          "internalType": "address",
          "name": "account",
          "type": "address"
        },
        {
          "internalType": "bool",
          "name": "isExcluded",
          "type": "bool"
        }
      ],
      "name": "setIsExcludedFromDexFee",
      "outputs": [],
      "stateMutability": "nonpayable",
      "type": "function"
    },
    {
      "inputs": [
        {
          "internalType": "address",
          "name": "account",
          "type": "address"
        },
        {
          "internalType": "bool",
          "name": "isExcluded",
          "type": "bool"
        }
      ],
      "name": "setIsExcludedFromLimits",
      "outputs": [],
      "stateMutability": "nonpayable",
      "type": "function"
    },
    {
      "inputs": [
        {
          "internalType": "uint128",
          "name": "numerator",
          "type": "uint128"
        },
        {
          "internalType": "uint128",
          "name": "denominator",
          "type": "uint128"
        }
      ],
      "name": "setMaxTransactionSizePercent",
      "outputs": [],
      "stateMutability": "nonpayable",
      "type": "function"
    },
    {
      "inputs": [
        {
          "internalType": "uint256",
          "name": "_numTokensToSwap",
          "type": "uint256"
        }
      ],
      "name": "setNumTokensToSwap",
      "outputs": [],
      "stateMutability": "nonpayable",
      "type": "function"
    },
    {
      "inputs": [
        {
          "internalType": "uint128",
          "name": "numerator",
          "type": "uint128"
        },
        {
          "internalType": "uint128",
          "name": "denominator",
          "type": "uint128"
        }
      ],
      "name": "setSellAccumulationFee",
      "outputs": [],
      "stateMutability": "nonpayable",
      "type": "function"
    },
    {
      "inputs": [
        {
          "internalType": "uint128",
          "name": "numerator",
          "type": "uint128"
        },
        {
          "internalType": "uint128",
          "name": "denominator",
          "type": "uint128"
        }
      ],
      "name": "setSellAtSmallPriceAccumulationFee",
      "outputs": [],
      "stateMutability": "nonpayable",
      "type": "function"
    },
    {
      "inputs": [
        {
          "internalType": "uint128",
          "name": "numerator",
          "type": "uint128"
        },
        {
          "internalType": "uint128",
          "name": "denominator",
          "type": "uint128"
        }
      ],
      "name": "setSellReflectionFee",
      "outputs": [],
      "stateMutability": "nonpayable",
      "type": "function"
    },
    {
      "inputs": [],
      "name": "symbol",
      "outputs": [
        {
          "internalType": "string",
          "name": "",
          "type": "string"
        }
      ],
      "stateMutability": "view",
      "type": "function"
    },
    {
      "inputs": [
        {
          "internalType": "uint256",
          "name": "rAmount",
          "type": "uint256"
        }
      ],
      "name": "tokenFromReflection",
      "outputs": [
        {
          "internalType": "uint256",
          "name": "",
          "type": "uint256"
        }
      ],
      "stateMutability": "view",
      "type": "function"
    },
    {
      "inputs": [],
      "name": "totalBurn",
      "outputs": [
        {
          "internalType": "uint256",
          "name": "",
          "type": "uint256"
        }
      ],
      "stateMutability": "view",
      "type": "function"
    },
    {
      "inputs": [],
      "name": "totalFees",
      "outputs": [
        {
          "internalType": "uint256",
          "name": "",
          "type": "uint256"
        }
      ],
      "stateMutability": "view",
      "type": "function"
    },
    {
      "inputs": [],
      "name": "totalSupply",
      "outputs": [
        {
          "internalType": "uint256",
          "name": "",
          "type": "uint256"
        }
      ],
      "stateMutability": "view",
      "type": "function"
    },
    {
      "inputs": [
        {
          "internalType": "address",
          "name": "recipient",
          "type": "address"
        },
        {
          "internalType": "uint256",
          "name": "amount",
          "type": "uint256"
        }
      ],
      "name": "transfer",
      "outputs": [
        {
          "internalType": "bool",
          "name": "",
          "type": "bool"
        }
      ],
      "stateMutability": "nonpayable",
      "type": "function"
    },
    {
      "inputs": [
        {
          "internalType": "address",
          "name": "sender",
          "type": "address"
        },
        {
          "internalType": "address",
          "name": "recipient",
          "type": "address"
        },
        {
          "internalType": "uint256",
          "name": "amount",
          "type": "uint256"
        }
      ],
      "name": "transferFrom",
      "outputs": [
        {
          "internalType": "bool",
          "name": "",
          "type": "bool"
        }
      ],
      "stateMutability": "nonpayable",
      "type": "function"
    },
    {
      "inputs": [
        {
          "internalType": "address",
          "name": "newOwner",
          "type": "address"
        }
      ],
      "name": "transferOwnership",
      "outputs": [],
      "stateMutability": "nonpayable",
      "type": "function"
    },
    {
      "inputs": [],
      "name": "uniswapV2Pair",
      "outputs": [
        {
          "internalType": "contract IUniswapV2Pair",
          "name": "",
          "type": "address"
        }
      ],
      "stateMutability": "view",
      "type": "function"
    }
  ],
  "transactionHash": "0xa5267e857cffa82c5aede07ee2ccf4c628959db7cad4ac1a8ac917ae07710d82",
  "args": [],
  "solcInputHash": "56b313b1f533185b94c24c745cec7b90",
  "bytecode": "0x6080604052600c805461ff0019169055620000296006606462000427602090811b6200207117901c565b8051600d80546020938401516001600160801b03199182166001600160801b03948516178416600160801b91851682021792839055600e8054848616931692909217841692819004909316909202179055620000949060159060649062000427811b6200207117901c565b8051600f80546020938401516001600160801b03199182166001600160801b03948516178416600160801b9185168202179283905560108054848616931692909217841692819004909316909202179055620000ff9060049060649062000427811b6200207117901c565b8051601180546020938401516001600160801b03199182166001600160801b03948516178416600160801b91851682021792839055601280548486169316929092178416928190049093169092021790556200016a9060049060649062000427811b6200207117901c565b8051601380546020938401516001600160801b03199182166001600160801b03948516178416600160801b9185168202179283905560148054848616931692909217841692819004909316909202179055620001d6906019906127109062000427811b6200207117901c565b8051601c80546020909301516001600160801b03908116600160801b029281166001600160801b0319909416939093179092161790553480156200021957600080fd5b50604051806040016040528060078152602001664c65646769747960c81b815250604051806040016040528060038152602001624c545960e81b8152506b08eb04bbcd9161efc8000000600062000275620004bf60201b60201c565b600080546001600160a01b0319166001600160a01b0383169081178255604051929350917f8be0079c531659141344cd1fd0a4f28419497f9722a3daafe3b4186f6b6457e0908290a3508251620002d490600990602086019062000d73565b508151620002ea90600a90602085019062000d73565b506006819055600019818181620002fd57fe5b06810360078190556001600062000313620004bf565b6001600160a01b0316815260208101919091526040016000205562000337620004bf565b6001600160a01b031660006001600160a01b03167fddf252ad1be2c89b69c2b068fc378daa952ba7f163c4a11628f55a4df523b3ef6006546040518082815260200191505060405180910390a350505050620003cd612710620003b9600f620003a5620004c360201b60201c565b620004c960201b620021021790919060201c565b6200052e60201b6200215b1790919060201c565b600b55620003e6620003de62000578565b600162000587565b620003f330600162000587565b620004096200040162000578565b60016200062d565b620004163060016200062d565b6200042130620006c6565b62000e26565b6200043162000df8565b816001600160801b0316836001600160801b0316111562000499576040805162461bcd60e51b815260206004820152601b60248201527f50657263656e743a20696e76616c69642070657263656e746167650000000000604482015290519081900360640190fd5b50604080518082019091526001600160801b038084168252821660208201525b92915050565b3390565b60065490565b600082620004da57506000620004b9565b82820282848281620004e857fe5b0414620005275760405162461bcd60e51b8152600401808060200182810382526021815260200180620043d06021913960400191505060405180910390fd5b9392505050565b60006200052783836040518060400160405280601a81526020017f536166654d6174683a206469766973696f6e206279207a65726f0000000000008152506200083f60201b60201c565b6000546001600160a01b031690565b62000591620004bf565b6000546001600160a01b03908116911614620005e3576040805162461bcd60e51b81526020600482018190526024820152600080516020620043f1833981519152604482015290519081900360640190fd5b80156200060c5762000605826017620008e660201b6200219d1790919060201c565b5062000629565b620006278260176200095860201b6200220d1790919060201c565b505b5050565b62000637620004bf565b6000546001600160a01b0390811691161462000689576040805162461bcd60e51b81526020600482018190526024820152600080516020620043f1833981519152604482015290519081900360640190fd5b8015620006ab5762000605826019620008e660201b6200219d1790919060201c565b620006278260196200095860201b6200220d1790919060201c565b620006d0620004bf565b6000546001600160a01b0390811691161462000722576040805162461bcd60e51b81526020600482018190526024820152600080516020620043f1833981519152604482015290519081900360640190fd5b6001600160a01b03811660009081526004602052604090205460ff16156200077c5760405162461bcd60e51b8152600401808060200182810382526029815260200180620043a76029913960400191505060405180910390fd5b6001600160a01b03811660009081526001602052604090205415620007d9576001600160a01b038116600090815260016020526040902054620007bf9062000a93565b6001600160a01b0382166000908152600260205260409020555b6001600160a01b03166000818152600460205260408120805460ff191660019081179091556005805491820181559091527f036b6384b5eca791c62761152d0c79bb0604c104a5fb6f4eb0703f3154bb3db00180546001600160a01b0319169091179055565b60008183620008cf5760405162461bcd60e51b81526004018080602001828103825283818151815260200191508051906020019080838360005b838110156200089357818101518382015260200162000879565b50505050905090810190601f168015620008c15780820380516001836020036101000a031916815260200191505b509250505060405180910390fd5b506000838581620008dc57fe5b0495945050505050565b6001600160a01b0381166000908152600183016020526040812054156200091057506000620004b9565b508154600180820184556000848152602080822090930180546001600160a01b0319166001600160a01b03959095169485179055845493815293810190915260409092205590565b6001600160a01b03811660009081526001830160205260408120546200098157506000620004b9565b6001600160a01b03821660009081526001840160208190526040822054855490926000198201928492909190889085908110620009ba57fe5b60009182526020808320909101546001600160a01b03908116845283820194909452604092830182209490945591871682526001880190925290812055845485908290811062000a0657fe5b60009182526020909120015485546001600160a01b03909116908690600019850190811062000a3157fe5b600091825260209091200180546001600160a01b0319166001600160a01b0392909216919091179055845485908062000a6657fe5b600082815260209020600019908201810180546001600160a01b0319169055019055506001949350505050565b600060075482111562000ad85760405162461bcd60e51b81526004018080602001828103825260388152602001806200436f6038913960400191505060405180910390fd5b600062000ae462000b00565b90506200052781846200052e60201b6200215b1790919060201c565b6000808062000b0e62000b33565b9150915062000b2c81836200052e60201b6200215b1790919060201c565b9250505090565b6007546006546000918291825b60055481101562000c895782600160006005848154811062000b5e57fe5b60009182526020808320909101546001600160a01b03168352820192909252604001902054118062000bc5575081600260006005848154811062000b9e57fe5b60009182526020808320909101546001600160a01b03168352820192909252604001902054115b1562000bde576007546006549450945050505062000cc8565b62000c2d600160006005848154811062000bf457fe5b60009182526020808320909101546001600160a01b0316835282810193909352604090910190205485916200234262000ccc821b17901c565b925062000c7e600260006005848154811062000c4557fe5b60009182526020808320909101546001600160a01b0316835282810193909352604090910190205484916200234262000ccc821b17901c565b915060010162000b40565b5062000ca86006546007546200052e60201b6200215b1790919060201c565b82101562000cc25760075460065493509350505062000cc8565b90925090505b9091565b60006200052783836040518060400160405280601e81526020017f536166654d6174683a207375627472616374696f6e206f766572666c6f77000081525062000d1660201b60201c565b6000818484111562000d6b5760405162461bcd60e51b81526020600482018181528351602484015283519092839260449091019190850190808383600083156200089357818101518382015260200162000879565b505050900390565b828054600181600116156101000203166002900490600052602060002090601f016020900481019282601f1062000db657805160ff191683800117855562000de6565b8280016001018555821562000de6579182015b8281111562000de657825182559160200191906001019062000dc9565b5062000df492915062000e0f565b5090565b604080518082019091526000808252602082015290565b5b8082111562000df4576000815560010162000e10565b6135398062000e366000396000f3fe608060405234801561001057600080fd5b50600436106103a45760003560e01c80636042f719116101e9578063baa97acc1161010f578063e9d4eacc116100ad578063f2fde38b1161007c578063f2fde38b14610a83578063f84354f114610aa9578063f8d5d46914610acf578063fda493c914610ad7576103a4565b8063e9d4eacc14610a07578063ec276f8514610a27578063ec9c273514610a55578063f2cc0c1814610a5d576103a4565b8063cba0e996116100e9578063cba0e99614610982578063cd3293de146109a8578063dd62ed3e146109b0578063de53fcd5146109de576103a4565b8063baa97acc14610944578063be1c414c14610972578063c35745251461097a576103a4565b80638c71072e116101875780639badc365116101565780639badc365146108b6578063a457c2d7146108be578063a9059cbb146108ea578063aea1f80314610916576103a4565b80638c71072e146108525780638da5cb5b1461088057806394a1404a1461088857806395d89b41146108ae576103a4565b8063715018a6116101c3578063715018a61461080c5780637337c7a61461081457806383f74ba71461081c5780638879444314610824576103a4565b80636042f719146107b857806360ba1c3e146107c057806370a08231146107e6576103a4565b80632993da12116102ce5780633c9f861d1161026c5780634ab9c15e1161023b5780634ab9c15e1461072e578063504d27511461075c578063548743c81461078a5780635cce86cd14610792576103a4565b80633c9f861d146106dc57806342966c68146106e45780634549b0391461070157806349bd5a5e14610726576103a4565b8063313ce567116102a8578063313ce56714610614578063342e11af14610632578063395093511461068a5780633c11e12a146106b6576103a4565b80632993da12146105c95780632d838119146105ef578063311028af1461060c576103a4565b806318160ddd11610346578063220f669611610315578063220f66961461055f57806323b872dd146105675780632630c12f1461059d57806327345b1b146105c1576103a4565b806318160ddd146104f257806318ec53b2146104fa5780631b8676f5146105205780631d0806ae14610557576103a4565b8063095ea7b311610382578063095ea7b31461045f5780630e6d2f0b1461049f5780630f569dad146104cd57806313114a9d146104ea576103a4565b806301a6c43b146103a9578063053ab182146103c357806306fdde03146103e2575b600080fd5b6103b1610adf565b60408051918252519081900360200190f35b6103e0600480360360208110156103d957600080fd5b5035610ae5565b005b6103ea610bc4565b6040805160208082528351818301528351919283929083019185019080838360005b8381101561042457818101518382015260200161040c565b50505050905090810190601f1680156104515780820380516001836020036101000a031916815260200191505b509250505060405180910390f35b61048b6004803603604081101561047557600080fd5b506001600160a01b038135169060200135610c5b565b604080519115158252519081900360200190f35b6103e0600480360360408110156104b557600080fd5b506001600160801b0381358116916020013516610c79565b6103e0600480360360208110156104e357600080fd5b5035610d9c565b6103b1610df9565b6103b1610dff565b6103b16004803603602081101561051057600080fd5b50356001600160a01b0316610e05565b610528610e17565b60405180836001600160801b03168152602001826001600160801b031681526020019250505060405180910390f35b6103b1610e31565b61048b610e37565b61048b6004803603606081101561057d57600080fd5b506001600160a01b03813581169160208101359091169060400135610e40565b6105a5610ec8565b604080516001600160a01b039092168252519081900360200190f35b610528610ed7565b6103e0600480360360208110156105df57600080fd5b50356001600160a01b0316610ef1565b6103b16004803603602081101561060557600080fd5b503561104b565b6103b16110ad565b61061c6110bd565b6040805160ff9092168252519081900360200190f35b61063a6110c2565b60408051602080825283518183015283519192839290830191858101910280838360005b8381101561067657818101518382015260200161065e565b505050509050019250505060405180910390f35b61048b600480360360408110156106a057600080fd5b506001600160a01b038135169060200135611126565b61048b600480360360208110156106cc57600080fd5b50356001600160a01b0316611174565b6103b1611181565b61048b600480360360208110156106fa57600080fd5b503561119e565b6103b16004803603604081101561071757600080fd5b508035906020013515156111b9565b6105a561124b565b6103e06004803603604081101561074457600080fd5b506001600160801b038135811691602001351661125a565b6103e06004803603604081101561077257600080fd5b506001600160801b0381358116916020013516611330565b6105286113cc565b61048b600480360360208110156107a857600080fd5b50356001600160a01b03166113e6565b6105286113f3565b61048b600480360360208110156107d657600080fd5b50356001600160a01b031661140d565b6103b1600480360360208110156107fc57600080fd5b50356001600160a01b031661141a565b6103e061147c565b61052861151e565b610528611538565b6103e06004803603604081101561083a57600080fd5b506001600160a01b0381351690602001351515611552565b6103e06004803603604081101561086857600080fd5b506001600160a01b03813516906020013515156115d1565b6105a5611645565b6103e06004803603602081101561089e57600080fd5b50356001600160a01b0316611654565b6103ea6116dc565b61063a61173d565b61048b600480360360408110156108d457600080fd5b506001600160a01b03813516906020013561179d565b61048b6004803603604081101561090057600080fd5b506001600160a01b038135169060200135611805565b6103e06004803603604081101561092c57600080fd5b506001600160801b0381358116916020013516611819565b6103e06004803603604081101561095a57600080fd5b506001600160801b03813581169160200135166118ef565b6105286119c5565b6105286119df565b61048b6004803603602081101561099857600080fd5b50356001600160a01b03166119f9565b6105a5611a17565b6103b1600480360360408110156109c657600080fd5b506001600160a01b0381358116916020013516611a26565b6109e6611a51565b604051808260018111156109f657fe5b815260200191505060405180910390f35b6103e060048036036020811015610a1d57600080fd5b503560ff16611a5f565b6103e060048036036040811015610a3d57600080fd5b506001600160a01b0381351690602001351515611ada565b610528611b82565b6103e060048036036020811015610a7357600080fd5b50356001600160a01b0316611b9c565b6103e060048036036020811015610a9957600080fd5b50356001600160a01b0316611d0c565b6103e060048036036020811015610abf57600080fd5b50356001600160a01b0316611e04565b61063a611fab565b61063a61200e565b600b5481565b6000610aef612384565b6001600160a01b03811660009081526004602052604090205490915060ff1615610b4a5760405162461bcd60e51b815260040180806020018281038252603a8152602001806134ca603a913960400191505060405180910390fd5b6000610b5882600085612388565b5050506001600160a01b038616600090815260016020526040902054939450610b8693925084915050612342565b6001600160a01b038316600090815260016020526040902055600754610bac9082612342565b600755600854610bbc90846123ea565b600855505050565b60098054604080516020601f6002600019610100600188161502019095169490940493840181900481028201810190925282815260609390929091830182828015610c505780601f10610c2557610100808354040283529160200191610c50565b820191906000526020600020905b815481529060010190602001808311610c3357829003601f168201915b505050505090505b90565b6000610c6f610c68612384565b8484612444565b5060015b92915050565b610c81612384565b6000546001600160a01b03908116911614610cd1576040805162461bcd60e51b81526020600482018190526024820152600080516020613429833981519152604482015290519081900360640190fd5b610cdb8282612071565b8051600d80546020938401516001600160801b03199091166001600160801b03938416178316600160801b91841682021791829055604080518082018252600e548086168252839004851681870152815180830190925283851682529190920490921692810192909252610d4f9190612530565b610d98576040805162461bcd60e51b8152602060048201526015602482015274098cac8ced2e8f27440cccaca40e8dede40d0d2ced605b1b604482015290519081900360640190fd5b5050565b610da4612384565b6000546001600160a01b03908116911614610df4576040805162461bcd60e51b81526020600482018190526024820152600080516020613429833981519152604482015290519081900360640190fd5b600b55565b60085490565b60065490565b601b6020526000908152604090205481565b600e546001600160801b0380821691600160801b90041682565b60205481565b600c5460ff1681565b6000610e4d848484612576565b610ebd84610e59612384565b610eb8856040518060600160405280602f815260200161349b602f91396001600160a01b038a16600090815260036020526040812090610e97612384565b6001600160a01b0316815260208101919091526040016000205491906126e4565b612444565b5060015b9392505050565b601f546001600160a01b031681565b6012546001600160801b0380821691600160801b90041682565b610ef9612384565b6000546001600160a01b03908116911614610f49576040805162461bcd60e51b81526020600482018190526024820152600080516020613429833981519152604482015290519081900360640190fd5b601e80546001600160a01b0319166001600160a01b038381169190911791829055610f76911660016115d1565b601e54610f8d906001600160a01b03166001611552565b601e54610fa2906001600160a01b0316611b9c565b601e60009054906101000a90046001600160a01b03166001600160a01b03166349bd5a5e6040518163ffffffff1660e01b8152600401602060405180830381600087803b158015610ff257600080fd5b505af1158015611006573d6000803e3d6000fd5b505050506040513d602081101561101c57600080fd5b5051601d80546001600160a01b0319166001600160a01b03928316179081905561104891166001611ada565b50565b600060075482111561108e5760405162461bcd60e51b815260040180806020018281038252603881526020018061323e6038913960400191505060405180910390fd5b600061109861277b565b90506110a4838261215b565b9150505b919050565b6b08eb04bbcd9161efc800000081565b601290565b60606017600001805480602002602001604051908101604052809291908181526020018280548015610c5057602002820191906000526020600020905b81546001600160a01b031681526001909101906020018083116110ff575050505050905090565b6000610c6f611133612384565b84610eb88560036000611144612384565b6001600160a01b03908116825260208083019390935260409182016000908120918c1681529252902054906123ea565b6000610c7360158361279e565b600061118b610dff565b6b08eb04bbcd9161efc800000003905090565b60006111b16111ab612384565b836127bf565b506001919050565b60006006548311156111fc5760405162461bcd60e51b815260040180806020018281038252602d815260200180613322602d913960400191505060405180910390fd5b6000611206612384565b90508261122c57600061121b82600087612388565b50949750610c739650505050505050565b600061123a82600087612388565b50939750610c739650505050505050565b601d546001600160a01b031681565b611262612384565b6000546001600160a01b039081169116146112b2576040805162461bcd60e51b81526020600482018190526024820152600080516020613429833981519152604482015290519081900360640190fd5b6112bc8282612071565b8051601380546020938401516001600160801b03199091166001600160801b03938416178316600160801b918416820217918290556040805180820182526014548086168252839004851681870152815180830190925283851682529190920490921692810192909252610d4f9190612530565b611338612384565b6000546001600160a01b03908116911614611388576040805162461bcd60e51b81526020600482018190526024820152600080516020613429833981519152604482015290519081900360640190fd5b6113928282612071565b8051601c80546020909301516001600160801b03908116600160801b029281166001600160801b0319909416939093179092161790555050565b6014546001600160801b0380821691600160801b90041682565b6000610c7360198361279e565b6011546001600160801b0380821691600160801b90041682565b6000610c7360178361279e565b6001600160a01b03811660009081526004602052604081205460ff161561145a57506001600160a01b0381166000908152600260205260409020546110a8565b6001600160a01b038216600090815260016020526040902054610c739061104b565b611484612384565b6000546001600160a01b039081169116146114d4576040805162461bcd60e51b81526020600482018190526024820152600080516020613429833981519152604482015290519081900360640190fd5b600080546040516001600160a01b03909116907f8be0079c531659141344cd1fd0a4f28419497f9722a3daafe3b4186f6b6457e0908390a3600080546001600160a01b0319169055565b6013546001600160801b0380821691600160801b90041682565b6010546001600160801b0380821691600160801b90041682565b61155a612384565b6000546001600160a01b039081169116146115aa576040805162461bcd60e51b81526020600482018190526024820152600080516020613429833981519152604482015290519081900360640190fd5b80156115c1576115bb60198361219d565b50610d98565b6115cc60198361220d565b505050565b6115d9612384565b6000546001600160a01b03908116911614611629576040805162461bcd60e51b81526020600482018190526024820152600080516020613429833981519152604482015290519081900360640190fd5b801561163a576115bb60178361219d565b6115cc60178361220d565b6000546001600160a01b031690565b61165c612384565b6000546001600160a01b039081169116146116ac576040805162461bcd60e51b81526020600482018190526024820152600080516020613429833981519152604482015290519081900360640190fd5b601f80546001600160a01b0319166001600160a01b038316179055602054611048576116d66128bb565b60205550565b600a8054604080516020601f6002600019610100600188161502019095169490940493840181900481028201810190925282815260609390929091830182828015610c505780601f10610c2557610100808354040283529160200191610c50565b60606005805480602002602001604051908101604052809291908181526020018280548015610c50576020028201919060005260206000209081546001600160a01b031681526001909101906020018083116110ff575050505050905090565b6000610c6f6117aa612384565b84610eb8856040518060600160405280602c81526020016133d3602c9139600360006117d4612384565b6001600160a01b03908116825260208083019390935260409182016000908120918d168152925290205491906126e4565b6000610c6f611812612384565b8484612576565b611821612384565b6000546001600160a01b03908116911614611871576040805162461bcd60e51b81526020600482018190526024820152600080516020613429833981519152604482015290519081900360640190fd5b61187b8282612071565b8051601180546020938401516001600160801b03199091166001600160801b03938416178316600160801b918416820217918290556040805180820182526012548086168252839004851681870152815180830190925283851682529190920490921692810192909252610d4f9190612530565b6118f7612384565b6000546001600160a01b03908116911614611947576040805162461bcd60e51b81526020600482018190526024820152600080516020613429833981519152604482015290519081900360640190fd5b6119518282612071565b8051600f80546020938401516001600160801b03199091166001600160801b03938416178316600160801b918416820217918290556040805180820182526010548086168252839004851681870152815180830190925283851682529190920490921692810192909252610d4f9190612530565b600d546001600160801b0380821691600160801b90041682565b601c546001600160801b0380821691600160801b90041682565b6001600160a01b031660009081526004602052604090205460ff1690565b601e546001600160a01b031681565b6001600160a01b03918216600090815260036020908152604080832093909416825291909152205490565b600c54610100900460ff1681565b611a67612384565b6000546001600160a01b03908116911614611ab7576040805162461bcd60e51b81526020600482018190526024820152600080516020613429833981519152604482015290519081900360640190fd5b600c805482919061ff001916610100836001811115611ad257fe5b021790555050565b611ae2612384565b6000546001600160a01b03908116911614611b32576040805162461bcd60e51b81526020600482018190526024820152600080516020613429833981519152604482015290519081900360640190fd5b8015611b5f57611b4360158361219d565b50611b4d826119f9565b611b5a57611b5a82611b9c565b610d98565b611b6a60158361220d565b50611b74826119f9565b15610d9857610d9882611e04565b600f546001600160801b0380821691600160801b90041682565b611ba4612384565b6000546001600160a01b03908116911614611bf4576040805162461bcd60e51b81526020600482018190526024820152600080516020613429833981519152604482015290519081900360640190fd5b6001600160a01b03811660009081526004602052604090205460ff1615611c4c5760405162461bcd60e51b81526004018080602001828103825260298152602001806132f96029913960400191505060405180910390fd5b6001600160a01b03811660009081526001602052604090205415611ca6576001600160a01b038116600090815260016020526040902054611c8c9061104b565b6001600160a01b0382166000908152600260205260409020555b6001600160a01b03166000818152600460205260408120805460ff191660019081179091556005805491820181559091527f036b6384b5eca791c62761152d0c79bb0604c104a5fb6f4eb0703f3154bb3db00180546001600160a01b0319169091179055565b611d14612384565b6000546001600160a01b03908116911614611d64576040805162461bcd60e51b81526020600482018190526024820152600080516020613429833981519152604482015290519081900360640190fd5b6001600160a01b038116611da95760405162461bcd60e51b81526004018080602001828103825260268152602001806132766026913960400191505060405180910390fd5b600080546040516001600160a01b03808516939216917f8be0079c531659141344cd1fd0a4f28419497f9722a3daafe3b4186f6b6457e091a3600080546001600160a01b0319166001600160a01b0392909216919091179055565b611e0c612384565b6000546001600160a01b03908116911614611e5c576040805162461bcd60e51b81526020600482018190526024820152600080516020613429833981519152604482015290519081900360640190fd5b6001600160a01b03811660009081526004602052604090205460ff16611eb35760405162461bcd60e51b81526004018080602001828103825260298152602001806134496029913960400191505060405180910390fd5b60005b600554811015610d9857816001600160a01b031660058281548110611ed757fe5b6000918252602090912001546001600160a01b03161415611fa357600580546000198101908110611f0457fe5b600091825260209091200154600580546001600160a01b039092169183908110611f2a57fe5b600091825260208083209190910180546001600160a01b0319166001600160a01b039485161790559184168152600282526040808220829055600490925220805460ff191690556005805480611f7c57fe5b600082815260209020810160001990810180546001600160a01b0319169055019055610d98565b600101611eb6565b60606019600001805480602002602001604051908101604052809291908181526020018280548015610c50576020028201919060005260206000209081546001600160a01b031681526001909101906020018083116110ff575050505050905090565b60606015600001805480602002602001604051908101604052809291908181526020018280548015610c50576020028201919060005260206000209081546001600160a01b031681526001909101906020018083116110ff575050505050905090565b612079613226565b816001600160801b0316836001600160801b031611156120e0576040805162461bcd60e51b815260206004820152601b60248201527f50657263656e743a20696e76616c69642070657263656e746167650000000000604482015290519081900360640190fd5b50604080518082019091526001600160801b0392831681529116602082015290565b60008261211157506000610c73565b8282028284828161211e57fe5b0414610ec15760405162461bcd60e51b81526004018080602001828103825260218152602001806133866021913960400191505060405180910390fd5b6000610ec183836040518060400160405280601a81526020017f536166654d6174683a206469766973696f6e206279207a65726f000000000000815250612960565b6001600160a01b0381166000908152600183016020526040812054156121c557506000610c73565b508154600180820184556000848152602080822090930180546001600160a01b0319166001600160a01b03959095169485179055845493815293810190915260409092205590565b6001600160a01b038116600090815260018301602052604081205461223457506000610c73565b6001600160a01b0382166000908152600184016020819052604082205485549092600019820192849290919088908590811061226c57fe5b60009182526020808320909101546001600160a01b0390811684528382019490945260409283018220949094559187168252600188019092529081205584548590829081106122b757fe5b60009182526020909120015485546001600160a01b0390911690869060001985019081106122e157fe5b600091825260209091200180546001600160a01b0319166001600160a01b0392909216919091179055845485908061231557fe5b600082815260209020600019908201810180546001600160a01b0319169055019055506001949350505050565b6000610ec183836040518060400160405280601e81526020017f536166654d6174683a207375627472616374696f6e206f766572666c6f7700008152506126e4565b3390565b6000806000806000806000806000806123a28d8d8d6129c5565b9250925092506000806000806123b98f8787612a0d565b9350935093509350838383838a8a8a9d509d509d509d509d509d509d50505050505050509397509397509397909450565b600082820183811015610ec1576040805162461bcd60e51b815260206004820152601b60248201527f536166654d6174683a206164646974696f6e206f766572666c6f770000000000604482015290519081900360640190fd5b6001600160a01b0383166124895760405162461bcd60e51b815260040180806020018281038252602b8152602001806132ce602b913960400191505060405180910390fd5b6001600160a01b0382166124ce5760405162461bcd60e51b81526004018080602001828103825260298152602001806134726029913960400191505060405180910390fd5b6001600160a01b03808416600081815260036020908152604080832094871680845294825291829020859055815185815291517f8c5be1e5ebec7d5bd14f71427d1e84f3dd0314c0f7b2291e5b200ac8c7c3b9259281900390910190a3505050565b60208201518151600091612550916001600160801b039081169116612102565b6020830151845161256d916001600160801b039182169116612102565b11159392505050565b61257f836113e6565b158015612590575061259082611174565b156125d8576125a142610258612342565b6001600160a01b0384166000908152601b6020526040902054106125c457600080fd5b6125cc612a6d565b8111156125d857600080fd5b6001600160a01b038084166000908152601b60205260409020429055601f54161561267a57601f60009054906101000a90046001600160a01b03166001600160a01b0316630c88b7536040518163ffffffff1660e01b8152600401602060405180830381600087803b15801561264d57600080fd5b505af1158015612661573d6000803e3d6000fd5b505050506040513d602081101561267757600080fd5b50505b612685838383612aad565b60006126903061141a565b9050600b5481101580156126a75750600c5460ff16155b80156126c15750601d546001600160a01b03858116911614155b156126de57600b548111156126d55750600b545b6126de81612d34565b50505050565b600081848411156127735760405162461bcd60e51b81526004018080602001828103825283818151815260200191508051906020019080838360005b83811015612738578181015183820152602001612720565b50505050905090810190601f1680156127655780820380516001836020036101000a031916815260200191505b509250505060405180910390fd5b505050900390565b6000806000612788612ea6565b9092509050612797828261215b565b9250505090565b6001600160a01b031660009081526001919091016020526040902054151590565b60006127d36127cc61277b565b8390612102565b90506128128160405180606001604052806032815260200161329c603291396001600160a01b03861660009081526001602052604090205491906126e4565b6001600160a01b03841660009081526001602090815260408083209390935560049052205460ff16156128965761287c8260405180606001604052806032815260200161329c603291396001600160a01b03861660009081526002602052604090205491906126e4565b6001600160a01b0384166000908152600260205260409020555b6007546128a39082612342565b6007556006546128b39083612342565b600655505050565b601f546000906001600160a01b03166128d657506000610c58565b601f5460408051633ddac95360e01b8152306004820152670de0b6b3a7640000602482015290516001600160a01b0390921691633ddac95391604480820192602092909190829003018186803b15801561292f57600080fd5b505afa158015612943573d6000803e3d6000fd5b505050506040513d602081101561295957600080fd5b5051905090565b600081836129af5760405162461bcd60e51b8152602060048201818152835160248401528351909283926044909101919085019080838360008315612738578181015183820152602001612720565b5060008385816129bb57fe5b0495945050505050565b6000806000806129d6878787613009565b905060006129e588888861306e565b905060006129fd826129f78986612342565b90612342565b9992985090965090945050505050565b6000806000806000612a1d61277b565b90506000612a2b8983612102565b90506000612a398984612102565b90506000612a478985612102565b90506000612a59826129f78686612342565b939c939b5091995097509095505050505050565b6000612aa8612a7a610dff565b60408051808201909152601c546001600160801b038082168352600160801b9091041660208201529061315d565b905090565b6001600160a01b038316612af25760405162461bcd60e51b815260040180806020018281038252602c8152602001806133a7602c913960400191505060405180910390fd5b6001600160a01b038216612b375760405162461bcd60e51b815260040180806020018281038252602a8152602001806133ff602a913960400191505060405180910390fd5b60008111612b765760405162461bcd60e51b815260040180806020018281038252603781526020018061334f6037913960400191505060405180910390fd5b6000806000806000806000612b8c8a8a8a612388565b9650965096509650965096509650612bd287600160008d6001600160a01b03166001600160a01b031681526020019081526020016000205461234290919063ffffffff16565b6001600160a01b038b1660009081526001602090815260408083209390935560049052205460ff1615612c3c576001600160a01b038a16600090815260026020526040902054612c229089612342565b6001600160a01b038b166000908152600260205260409020555b6001600160a01b038916600090815260016020526040902054612c5f90876123ea565b6001600160a01b038a1660009081526001602090815260408083209390935560049052205460ff1615612cc9576001600160a01b038916600090815260026020526040902054612caf90846123ea565b6001600160a01b038a166000908152600260205260409020555b612cd38583613196565b612cdd84826131ba565b886001600160a01b03168a6001600160a01b03167fddf252ad1be2c89b69c2b068fc378daa952ba7f163c4a11628f55a4df523b3ef856040518082815260200191505060405180910390a350505050505050505050565b600c805460ff19166001179055601e54612d599030906001600160a01b031683612576565b6000600c54610100900460ff166001811115612d7157fe5b1415612de157601e546040805163173865ad60e01b81526004810184905290516001600160a01b039092169163173865ad9160248082019260009290919082900301818387803b158015612dc457600080fd5b505af1158015612dd8573d6000803e3d6000fd5b50505050612e99565b6001600c54610100900460ff166001811115612df957fe5b1415612e4c57601e546040805163255f796d60e21b81526004810184905290516001600160a01b039092169163957de5b49160248082019260009290919082900301818387803b158015612dc457600080fd5b6040805162461bcd60e51b815260206004820152601f60248201527f4c6564676974793a20696e76616c69642066656544657374696e6174696f6e00604482015290519081900360640190fd5b50600c805460ff19169055565b6007546006546000918291825b600554811015612fd757826001600060058481548110612ecf57fe5b60009182526020808320909101546001600160a01b031683528201929092526040019020541180612f345750816002600060058481548110612f0d57fe5b60009182526020808320909101546001600160a01b03168352820192909252604001902054115b15612f4b5760075460065494509450505050613005565b612f8b6001600060058481548110612f5f57fe5b60009182526020808320909101546001600160a01b031683528201929092526040019020548490612342565b9250612fcd6002600060058481548110612fa157fe5b60009182526020808320909101546001600160a01b031683528201929092526040019020548390612342565b9150600101612eb3565b50600654600754612fe79161215b565b821015612fff57600754600654935093505050613005565b90925090505b9091565b600061301483611174565b801561302657506130248461140d565b155b1561306457604080518082019091526011546001600160801b038082168352600160801b90910416602082015261305d908361315d565b9050610ec1565b5060009392505050565b600061307984611174565b801561308b57506130898361140d565b155b156130c257604080518082019091526013546001600160801b038082168352600160801b90910416602082015261305d908361315d565b6130cb83611174565b80156130dd57506130db8461140d565b155b15613064576020546130f090600a612102565b6130f86128bb565b1061312f5760408051808201909152600d546001600160801b038082168352600160801b90910416602082015261305d908361315d565b60408051808201909152600f546001600160801b038082168352600160801b90910416602082015261305d90835b6000610ec183602001516001600160801b031661319085600001516001600160801b03168561210290919063ffffffff16565b9061215b565b6007546131a39083612342565b6007556008546131b390826123ea565b6008555050565b306000908152600160205260409020546131d490836123ea565b3060009081526001602090815260408083209390935560049052205460ff1615610d98573060009081526002602052604090205461321290826123ea565b306000908152600260205260409020555050565b60408051808201909152600080825260208201529056fe5265666c656374546f6b656e3a20616d6f756e74206d757374206265206c657373207468616e20746f74616c207265666c656374696f6e734f776e61626c653a206e6577206f776e657220697320746865207a65726f20616464726573735265666c656374546f6b656e3a206275726e20616d6f756e74206973206d6f7265207468616e207468652062616c616e63655265666c656374546f6b656e3a20617070726f76652066726f6d20746865207a65726f20616464726573735265666c656374546f6b656e3a206163636f756e7420697320616c7265616479206578636c756465645265666c656374546f6b656e3a20616d6f756e74206d757374206265206c657373207468616e20737570706c795265666c656374546f6b656e3a207472616e7366657220616d6f756e74206d7573742062652067726561746572207468616e207a65726f536166654d6174683a206d756c7469706c69636174696f6e206f766572666c6f775265666c656374546f6b656e3a207472616e736665722066726f6d20746865207a65726f20616464726573735265666c656374546f6b656e3a2064656372656173656420616c6c6f77616e63652062656c6f77207a65726f5265666c656374546f6b656e3a207472616e7366657220746f20746865207a65726f20616464726573734f776e61626c653a2063616c6c6572206973206e6f7420746865206f776e65725265666c656374546f6b656e3a206163636f756e7420697320616c726561647920696e636c756465645265666c656374546f6b656e3a20617070726f766520746f20746865207a65726f20616464726573735265666c656374546f6b656e3a207472616e7366657220616d6f756e74206578636565647320616c6c6f77616e63655265666c656374546f6b656e3a206578636c75646564206164647265737365732063616e6e6f742063616c6c20746869732066756e6374696f6ea26469706673582212200814a2af40d68191a6037263ef2160ecbd97a7b10218fd38cae3893e22cfc1a864736f6c634300060c00335265666c656374546f6b656e3a20616d6f756e74206d757374206265206c657373207468616e20746f74616c207265666c656374696f6e735265666c656374546f6b656e3a206163636f756e7420697320616c7265616479206578636c75646564536166654d6174683a206d756c7469706c69636174696f6e206f766572666c6f774f776e61626c653a2063616c6c6572206973206e6f7420746865206f776e6572",
  "devdoc": {
    "kind": "dev",
    "methods": {
      "allowance(address,address)": {
        "details": "Returns the remaining number of tokens that `spender` will be allowed to spend on behalf of `owner` through {transferFrom}. This is zero by default. This value changes when {approve} or {transferFrom} are called."
      },
      "approve(address,uint256)": {
        "details": "Sets `amount` as the allowance of `spender` over the caller's tokens. Returns a boolean value indicating whether the operation succeeded. IMPORTANT: Beware that changing an allowance with this method brings the risk that someone may use both the old and the new allowance by unfortunate transaction ordering. One possible solution to mitigate this race condition is to first reduce the spender's allowance to 0 and set the desired value afterwards: https://github.com/ethereum/EIPs/issues/20#issuecomment-263524729 Emits an {Approval} event."
      },
      "balanceOf(address)": {
        "details": "Returns the amount of tokens owned by `account`."
      },
      "owner()": {
        "details": "Returns the address of the current owner."
      },
      "renounceOwnership()": {
        "details": "Leaves the contract without owner. It will not be possible to call `onlyOwner` functions anymore. Can only be called by the current owner. NOTE: Renouncing ownership will leave the contract without an owner, thereby removing any functionality that is only available to the owner."
      },
      "totalSupply()": {
        "details": "Returns the amount of tokens in existence."
      },
      "transfer(address,uint256)": {
        "details": "Moves `amount` tokens from the caller's account to `recipient`. Returns a boolean value indicating whether the operation succeeded. Emits a {Transfer} event."
      },
      "transferFrom(address,address,uint256)": {
        "details": "Moves `amount` tokens from `sender` to `recipient` using the allowance mechanism. `amount` is then deducted from the caller's allowance. Returns a boolean value indicating whether the operation succeeded. Emits a {Transfer} event."
      },
      "transferOwnership(address)": {
        "details": "Transfers ownership of the contract to a new account (`newOwner`). Can only be called by the current owner."
      }
    },
    "version": 1
  },
  "userdoc": {
    "kind": "user",
    "methods": {},
    "version": 1
  },
  "storageLayout": {
    "storage": [
      {
        "astId": 4571,
        "contract": "contracts/Ledgity.sol:Ledgity",
        "label": "_owner",
        "offset": 0,
        "slot": "0",
        "type": "t_address"
      },
      {
        "astId": 4781,
        "contract": "contracts/Ledgity.sol:Ledgity",
        "label": "_rOwned",
        "offset": 0,
        "slot": "1",
        "type": "t_mapping(t_address,t_uint256)"
      },
      {
        "astId": 4785,
        "contract": "contracts/Ledgity.sol:Ledgity",
        "label": "_tOwned",
        "offset": 0,
        "slot": "2",
        "type": "t_mapping(t_address,t_uint256)"
      },
      {
        "astId": 4791,
        "contract": "contracts/Ledgity.sol:Ledgity",
        "label": "_allowances",
        "offset": 0,
        "slot": "3",
        "type": "t_mapping(t_address,t_mapping(t_address,t_uint256))"
      },
      {
        "astId": 4795,
        "contract": "contracts/Ledgity.sol:Ledgity",
        "label": "_isExcluded",
        "offset": 0,
        "slot": "4",
        "type": "t_mapping(t_address,t_bool)"
      },
      {
        "astId": 4798,
        "contract": "contracts/Ledgity.sol:Ledgity",
        "label": "_excluded",
        "offset": 0,
        "slot": "5",
        "type": "t_array(t_address)dyn_storage"
      },
      {
        "astId": 4803,
        "contract": "contracts/Ledgity.sol:Ledgity",
        "label": "_tTotal",
        "offset": 0,
        "slot": "6",
        "type": "t_uint256"
      },
      {
        "astId": 4805,
        "contract": "contracts/Ledgity.sol:Ledgity",
        "label": "_rTotal",
        "offset": 0,
        "slot": "7",
        "type": "t_uint256"
      },
      {
        "astId": 4807,
        "contract": "contracts/Ledgity.sol:Ledgity",
        "label": "_tFeeTotal",
        "offset": 0,
        "slot": "8",
        "type": "t_uint256"
      },
      {
        "astId": 4809,
        "contract": "contracts/Ledgity.sol:Ledgity",
        "label": "_name",
        "offset": 0,
        "slot": "9",
        "type": "t_string_storage"
      },
      {
        "astId": 4811,
        "contract": "contracts/Ledgity.sol:Ledgity",
        "label": "_symbol",
        "offset": 0,
        "slot": "10",
        "type": "t_string_storage"
      },
      {
        "astId": 1363,
        "contract": "contracts/Ledgity.sol:Ledgity",
        "label": "numTokensToSwap",
        "offset": 0,
        "slot": "11",
        "type": "t_uint256"
      },
      {
        "astId": 1365,
        "contract": "contracts/Ledgity.sol:Ledgity",
        "label": "inSwapAndLiquify",
        "offset": 0,
        "slot": "12",
        "type": "t_bool"
      },
      {
        "astId": 1372,
        "contract": "contracts/Ledgity.sol:Ledgity",
        "label": "feeDestination",
        "offset": 1,
        "slot": "12",
        "type": "t_enum(FeeDestination)1368"
      },
      {
        "astId": 1379,
        "contract": "contracts/Ledgity.sol:Ledgity",
        "label": "sellAccumulationFee",
        "offset": 0,
        "slot": "13",
        "type": "t_struct(Percent)4683_storage"
      },
      {
        "astId": 1382,
        "contract": "contracts/Ledgity.sol:Ledgity",
        "label": "initialSellAccumulationFee",
        "offset": 0,
        "slot": "14",
        "type": "t_struct(Percent)4683_storage"
      },
      {
        "astId": 1391,
        "contract": "contracts/Ledgity.sol:Ledgity",
        "label": "sellAtSmallPriceAccumulationFee",
        "offset": 0,
        "slot": "15",
        "type": "t_struct(Percent)4683_storage"
      },
      {
        "astId": 1394,
        "contract": "contracts/Ledgity.sol:Ledgity",
        "label": "initialSellAtSmallPriceAccumulationFee",
        "offset": 0,
        "slot": "16",
        "type": "t_struct(Percent)4683_storage"
      },
      {
        "astId": 1401,
        "contract": "contracts/Ledgity.sol:Ledgity",
        "label": "sellReflectionFee",
        "offset": 0,
        "slot": "17",
        "type": "t_struct(Percent)4683_storage"
      },
      {
        "astId": 1404,
        "contract": "contracts/Ledgity.sol:Ledgity",
        "label": "initialSellReflectionFee",
        "offset": 0,
        "slot": "18",
        "type": "t_struct(Percent)4683_storage"
      },
      {
        "astId": 1411,
        "contract": "contracts/Ledgity.sol:Ledgity",
        "label": "buyAccumulationFee",
        "offset": 0,
        "slot": "19",
        "type": "t_struct(Percent)4683_storage"
      },
      {
        "astId": 1414,
        "contract": "contracts/Ledgity.sol:Ledgity",
        "label": "initialBuyAccumulationFee",
        "offset": 0,
        "slot": "20",
        "type": "t_struct(Percent)4683_storage"
      },
      {
        "astId": 1416,
        "contract": "contracts/Ledgity.sol:Ledgity",
        "label": "_dexes",
        "offset": 0,
        "slot": "21",
        "type": "t_struct(AddressSet)6241_storage"
      },
      {
        "astId": 1418,
        "contract": "contracts/Ledgity.sol:Ledgity",
        "label": "_excludedFromDexFee",
        "offset": 0,
        "slot": "23",
        "type": "t_struct(AddressSet)6241_storage"
      },
      {
        "astId": 1420,
        "contract": "contracts/Ledgity.sol:Ledgity",
        "label": "_excludedFromLimits",
        "offset": 0,
        "slot": "25",
        "type": "t_struct(AddressSet)6241_storage"
      },
      {
        "astId": 1424,
        "contract": "contracts/Ledgity.sol:Ledgity",
        "label": "lastTransactionAt",
        "offset": 0,
        "slot": "27",
        "type": "t_mapping(t_address,t_uint256)"
      },
      {
        "astId": 1431,
        "contract": "contracts/Ledgity.sol:Ledgity",
        "label": "maxTransactionSizePercent",
        "offset": 0,
        "slot": "28",
        "type": "t_struct(Percent)4683_storage"
      },
      {
        "astId": 1433,
        "contract": "contracts/Ledgity.sol:Ledgity",
        "label": "uniswapV2Pair",
        "offset": 0,
        "slot": "29",
        "type": "t_contract(IUniswapV2Pair)4145"
      },
      {
        "astId": 1435,
        "contract": "contracts/Ledgity.sol:Ledgity",
        "label": "reserve",
        "offset": 0,
        "slot": "30",
        "type": "t_contract(IReserve)3840"
      },
      {
        "astId": 1437,
        "contract": "contracts/Ledgity.sol:Ledgity",
        "label": "priceOracle",
        "offset": 0,
        "slot": "31",
        "type": "t_contract(ILedgityPriceOracle)3741"
      },
      {
        "astId": 1439,
        "contract": "contracts/Ledgity.sol:Ledgity",
        "label": "initialPrice",
        "offset": 0,
        "slot": "32",
        "type": "t_uint256"
      }
    ],
    "types": {
      "t_address": {
        "encoding": "inplace",
        "label": "address",
        "numberOfBytes": "20"
      },
      "t_array(t_address)dyn_storage": {
        "base": "t_address",
        "encoding": "dynamic_array",
        "label": "address[]",
        "numberOfBytes": "32"
      },
      "t_bool": {
        "encoding": "inplace",
        "label": "bool",
        "numberOfBytes": "1"
      },
      "t_contract(ILedgityPriceOracle)3741": {
        "encoding": "inplace",
        "label": "contract ILedgityPriceOracle",
        "numberOfBytes": "20"
      },
      "t_contract(IReserve)3840": {
        "encoding": "inplace",
        "label": "contract IReserve",
        "numberOfBytes": "20"
      },
      "t_contract(IUniswapV2Pair)4145": {
        "encoding": "inplace",
        "label": "contract IUniswapV2Pair",
        "numberOfBytes": "20"
      },
      "t_enum(FeeDestination)1368": {
        "encoding": "inplace",
        "label": "enum Ledgity.FeeDestination",
        "numberOfBytes": "1"
      },
      "t_mapping(t_address,t_bool)": {
        "encoding": "mapping",
        "key": "t_address",
        "label": "mapping(address => bool)",
        "numberOfBytes": "32",
        "value": "t_bool"
      },
      "t_mapping(t_address,t_mapping(t_address,t_uint256))": {
        "encoding": "mapping",
        "key": "t_address",
        "label": "mapping(address => mapping(address => uint256))",
        "numberOfBytes": "32",
        "value": "t_mapping(t_address,t_uint256)"
      },
      "t_mapping(t_address,t_uint256)": {
        "encoding": "mapping",
        "key": "t_address",
        "label": "mapping(address => uint256)",
        "numberOfBytes": "32",
        "value": "t_uint256"
      },
      "t_string_storage": {
        "encoding": "bytes",
        "label": "string",
        "numberOfBytes": "32"
      },
      "t_struct(AddressSet)6241_storage": {
        "encoding": "inplace",
        "label": "struct Set.AddressSet",
        "members": [
          {
            "astId": 6236,
            "contract": "contracts/Ledgity.sol:Ledgity",
            "label": "values",
            "offset": 0,
            "slot": "0",
            "type": "t_array(t_address)dyn_storage"
          },
          {
            "astId": 6240,
            "contract": "contracts/Ledgity.sol:Ledgity",
            "label": "_valueIndexPlusOne",
            "offset": 0,
            "slot": "1",
            "type": "t_mapping(t_address,t_uint256)"
          }
        ],
        "numberOfBytes": "64"
      },
      "t_struct(Percent)4683_storage": {
        "encoding": "inplace",
        "label": "struct Percent.Percent",
        "members": [
          {
            "astId": 4680,
            "contract": "contracts/Ledgity.sol:Ledgity",
            "label": "numerator",
            "offset": 0,
            "slot": "0",
            "type": "t_uint128"
          },
          {
            "astId": 4682,
            "contract": "contracts/Ledgity.sol:Ledgity",
            "label": "denominator",
            "offset": 16,
            "slot": "0",
            "type": "t_uint128"
          }
        ],
        "numberOfBytes": "32"
      },
      "t_uint128": {
        "encoding": "inplace",
        "label": "uint128",
        "numberOfBytes": "16"
      },
      "t_uint256": {
        "encoding": "inplace",
        "label": "uint256",
        "numberOfBytes": "32"
      }
    }
  }
}