{
  "address": "0xA464A0cdfbD1fAf11A75da173B1D3705F4F00E16",
  "abi": [
    {
      "inputs": [
        {
          "internalType": "address",
          "name": "pair_",
          "type": "address"
        }
      ],
      "stateMutability": "nonpayable",
      "type": "constructor"
    },
    {
      "anonymous": false,
      "inputs": [
        {
          "indexed": true,
          "internalType": "address",
          "name": "previousOwner",
          "type": "address"
        },
        {
          "indexed": true,
          "internalType": "address",
          "name": "newOwner",
          "type": "address"
        }
      ],
      "name": "OwnershipTransferred",
      "type": "event"
    },
    {
      "inputs": [],
      "name": "blockTimestampLast",
      "outputs": [
        {
          "internalType": "uint32",
          "name": "",
          "type": "uint32"
        }
      ],
      "stateMutability": "view",
      "type": "function"
    },
    {
      "inputs": [
        {
          "internalType": "uint256",
          "name": "_period",
          "type": "uint256"
        }
      ],
      "name": "changePeriod",
      "outputs": [],
      "stateMutability": "nonpayable",
      "type": "function"
    },
    {
      "inputs": [
        {
          "internalType": "address",
          "name": "token",
          "type": "address"
        },
        {
          "internalType": "uint256",
          "name": "amountIn",
          "type": "uint256"
        }
      ],
      "name": "consult",
      "outputs": [
        {
          "internalType": "uint256",
          "name": "amountOut",
          "type": "uint256"
        }
      ],
      "stateMutability": "view",
      "type": "function"
    },
    {
      "inputs": [],
      "name": "owner",
      "outputs": [
        {
          "internalType": "address",
          "name": "",
          "type": "address"
        }
      ],
      "stateMutability": "view",
      "type": "function"
    },
    {
      "inputs": [],
      "name": "period",
      "outputs": [
        {
          "internalType": "uint256",
          "name": "",
          "type": "uint256"
        }
      ],
      "stateMutability": "view",
      "type": "function"
    },
    {
      "inputs": [],
      "name": "price0Average",
      "outputs": [
        {
          "internalType": "uint224",
          "name": "_x",
          "type": "uint224"
        }
      ],
      "stateMutability": "view",
      "type": "function"
    },
    {
      "inputs": [],
      "name": "price0CumulativeLast",
      "outputs": [
        {
          "internalType": "uint256",
          "name": "",
          "type": "uint256"
        }
      ],
      "stateMutability": "view",
      "type": "function"
    },
    {
      "inputs": [],
      "name": "price1Average",
      "outputs": [
        {
          "internalType": "uint224",
          "name": "_x",
          "type": "uint224"
        }
      ],
      "stateMutability": "view",
      "type": "function"
    },
    {
      "inputs": [],
      "name": "price1CumulativeLast",
      "outputs": [
        {
          "internalType": "uint256",
          "name": "",
          "type": "uint256"
        }
      ],
      "stateMutability": "view",
      "type": "function"
    },
    {
      "inputs": [],
      "name": "renounceOwnership",
      "outputs": [],
      "stateMutability": "nonpayable",
      "type": "function"
    },
    {
      "inputs": [],
      "name": "token0",
      "outputs": [
        {
          "internalType": "address",
          "name": "",
          "type": "address"
        }
      ],
      "stateMutability": "view",
      "type": "function"
    },
    {
      "inputs": [],
      "name": "token1",
      "outputs": [
        {
          "internalType": "address",
          "name": "",
          "type": "address"
        }
      ],
      "stateMutability": "view",
      "type": "function"
    },
    {
      "inputs": [
        {
          "internalType": "address",
          "name": "newOwner",
          "type": "address"
        }
      ],
      "name": "transferOwnership",
      "outputs": [],
      "stateMutability": "nonpayable",
      "type": "function"
    },
    {
      "inputs": [],
      "name": "tryUpdate",
      "outputs": [
        {
          "internalType": "bool",
          "name": "",
          "type": "bool"
        }
      ],
      "stateMutability": "nonpayable",
      "type": "function"
    },
    {
      "inputs": [],
      "name": "update",
      "outputs": [],
      "stateMutability": "nonpayable",
      "type": "function"
    }
  ],
  "transactionHash": "0x99153beb1599f9c7120ffdbfb6f05bdbb4c0b0ff9d4d3ce85151dc4a44793868",
  "args": [
    "0x6F3fd2988a741EE736e04cf57bE8e91Df14682b7"
  ],
  "solcInputHash": "56b313b1f533185b94c24c745cec7b90",
  "bytecode": "0x60c060405261a8c06001553480156200001757600080fd5b5060405162001bed38038062001bed833981810160405260208110156200003d57600080fd5b505160006200004b620001be565b600080546001600160a01b0319166001600160a01b0383169081178255604051929350917f8be0079c531659141344cd1fd0a4f28419497f9722a3daafe3b4186f6b6457e0908290a350600280546001600160a01b0319166001600160a01b03831690811790915560408051630dfe168160e01b81529051839291630dfe1681916004808301926020929190829003018186803b158015620000ec57600080fd5b505afa15801562000101573d6000803e3d6000fd5b505050506040513d60208110156200011857600080fd5b505160601b6001600160601b0319166080526040805163d21220a760e01b815290516001600160a01b0383169163d21220a7916004808301926020929190829003018186803b1580156200016b57600080fd5b505afa15801562000180573d6000803e3d6000fd5b505050506040513d60208110156200019757600080fd5b505160601b6001600160601b03191660a052620001b661a8c0620001c2565b5050620008cf565b3390565b620001cc620001be565b6000546001600160a01b039081169116146200022f576040805162461bcd60e51b815260206004820181905260248201527f4f776e61626c653a2063616c6c6572206973206e6f7420746865206f776e6572604482015290519081900360640190fd5b60008111620002705760405162461bcd60e51b815260040180806020018281038252602281526020018062001bcb6022913960400191505060405180910390fd5b600181905560025460408051635909c0d560e01b815290516001600160a01b0390921691635909c0d591600480820192602092909190829003018186803b158015620002bb57600080fd5b505afa158015620002d0573d6000803e3d6000fd5b505050506040513d6020811015620002e757600080fd5b505160035560025460408051635a3d549360e01b815290516001600160a01b0390921691635a3d549391600480820192602092909190829003018186803b1580156200033257600080fd5b505afa15801562000347573d6000803e3d6000fd5b505050506040513d60208110156200035e57600080fd5b5051600490815560025460408051630240bc6b60e21b8152905160009384936001600160a01b031692630902f1ac9281830192606092829003018186803b158015620003a957600080fd5b505afa158015620003be573d6000803e3d6000fd5b505050506040513d6060811015620003d557600080fd5b50805160208201516040909201516005805463ffffffff191663ffffffff909216919091179055925090506001600160701b038216158015906200042157506001600160701b03811615155b62000473576040805162461bcd60e51b815260206004820152601f60248201527f4c65646769747950726963654f7261636c653a204e4f5f524553455256455300604482015290519081900360640190fd5b620004b76200048d836200052d60201b62000a1a1760201c565b620004a3836200052d60201b62000a1a1760201c565b6200055a60201b62000a4c1790919060201c565b51600680546001600160e01b0319166001600160e01b0390921691909117905562000508620004f2826200052d602090811b62000a1a17901c565b620004a3846200052d60201b62000a1a1760201c565b51600780546001600160e01b0319166001600160e01b03909216919091179055505050565b62000537620008bd565b50604080516020810190915260709190911b600160701b600160e01b0316815290565b62000564620008bd565b81516001600160e01b0316620005ac5760405162461bcd60e51b815260040180806020018281038252602381526020018062001ba86023913960400191505060405180910390fd5b815183516001600160e01b0390811691161415620005dd57506040805160208101909152600160701b815262000752565b82516001600160901b036001600160e01b03909116116200069f57815183516000916001600160e01b03169060701b6001600160701b031916816200061e57fe5b0490506001600160e01b038111156200067e576040805162461bcd60e51b815260206004820152601b60248201527f4669786564506f696e743a3a64697675713a206f766572666c6f770000000000604482015290519081900360640190fd5b6040518060200160405280826001600160e01b031681525091505062000752565b6000620006d7600160701b85600001516001600160e01b031685600001516001600160e01b03166200075860201b62000c361760201c565b90506001600160e01b0381111562000736576040805162461bcd60e51b815260206004820152601b60248201527f4669786564506f696e743a3a64697675713a206f766572666c6f770000000000604482015290519081900360640190fd5b6040518060200160405280826001600160e01b03168152509150505b92915050565b600080806200076886866200081c565b91509150600084806200077757fe5b8688099050828111156200078c576001820391505b918290039181620007ad57848381620007a157fe5b04935050505062000815565b84821062000802576040805162461bcd60e51b815260206004820152601a60248201527f46756c6c4d6174683a2046554c4c4449565f4f564552464c4f57000000000000604482015290519081900360640190fd5b6200080f8383876200084a565b93505050505b9392505050565b600080806000198486099050838502925082810391508281101562000842576001820391505b509250929050565b600081810382168083816200085b57fe5b0492508085816200086857fe5b0494508081600003816200087857fe5b60028581038087028203028087028203028087028203028087028203028087028203028087028203029586029003909402930460010193909302939093010292915050565b60408051602081019091526000815290565b60805160601c60a05160601c6112a562000903600039806103eb52806108e852508061034f528061037552506112a56000f3fe608060405234801561001057600080fd5b50600436106100f55760003560e01c80638da5cb5b11610097578063c5700a0211610066578063c5700a02146101eb578063d21220a71461020c578063ef78d4fd14610214578063f2fde38b1461021c576100f5565b80638da5cb5b146101b6578063a2e62045146101be578063a4bf1361146101c6578063a6bb4539146101e3576100f5565b80635909c0d5116100d35780635909c0d5146101785780635a3d5493146101805780635e6aaf2c14610188578063715018a6146101ac576100f5565b80630c88b753146100fa5780630dfe1681146101165780633ddac9531461013a575b600080fd5b610102610242565b604080519115158252519081900360200190f35b61011e61034d565b604080516001600160a01b039092168252519081900360200190f35b6101666004803603604081101561015057600080fd5b506001600160a01b038135169060200135610371565b60408051918252519081900360200190f35b610166610492565b610166610498565b61019061049e565b604080516001600160e01b039092168252519081900360200190f35b6101b46104ad565b005b61011e610561565b6101b4610570565b6101b4600480360360208110156101dc57600080fd5b50356105b5565b6101906108cb565b6101f36108da565b6040805163ffffffff9092168252519081900360200190f35b61011e6108e6565b61016661090a565b6101b46004803603602081101561023257600080fd5b50356001600160a01b0316610910565b600554600090819063ffffffff16610258610cf1565b0390506001548163ffffffff16101561027557600091505061034a565b60025460009081908190610291906001600160a01b0316610cfb565b92509250925060405180602001604052808563ffffffff166003548603816102b557fe5b046001600160e01b039081169091529051600680546001600160e01b031916919092161790556040805160208101909152600454819063ffffffff8716908503816102fc57fe5b046001600160e01b039081169091529051600780546001600160e01b031916919092161790556003929092556004556005805463ffffffff191663ffffffff90921691909117905550600190505b90565b7f000000000000000000000000000000000000000000000000000000000000000081565b60007f00000000000000000000000000000000000000000000000000000000000000006001600160a01b0316836001600160a01b031614156103e95760408051602081019091526006546001600160e01b031681526103d9906103d49084610eea565b610f7e565b6001600160901b0316905061048c565b7f00000000000000000000000000000000000000000000000000000000000000006001600160a01b0316836001600160a01b0316146104595760405162461bcd60e51b81526004018080602001828103825260218152602001806112076021913960400191505060405180910390fd5b60408051602081019091526007546001600160e01b03168152610480906103d49084610eea565b6001600160901b031690505b92915050565b60035481565b60045481565b6007546001600160e01b031681565b6104b5610f85565b6000546001600160a01b03908116911614610517576040805162461bcd60e51b815260206004820181905260248201527f4f776e61626c653a2063616c6c6572206973206e6f7420746865206f776e6572604482015290519081900360640190fd5b600080546040516001600160a01b03909116907f8be0079c531659141344cd1fd0a4f28419497f9722a3daafe3b4186f6b6457e0908390a3600080546001600160a01b0319169055565b6000546001600160a01b031690565b610578610242565b6105b35760405162461bcd60e51b81526004018080602001828103825260268152602001806111986026913960400191505060405180910390fd5b565b6105bd610f85565b6000546001600160a01b0390811691161461061f576040805162461bcd60e51b815260206004820181905260248201527f4f776e61626c653a2063616c6c6572206973206e6f7420746865206f776e6572604482015290519081900360640190fd5b6000811161065e5760405162461bcd60e51b815260040180806020018281038252602281526020018061124e6022913960400191505060405180910390fd5b600181905560025460408051635909c0d560e01b815290516001600160a01b0390921691635909c0d591600480820192602092909190829003018186803b1580156106a857600080fd5b505afa1580156106bc573d6000803e3d6000fd5b505050506040513d60208110156106d257600080fd5b505160035560025460408051635a3d549360e01b815290516001600160a01b0390921691635a3d549391600480820192602092909190829003018186803b15801561071c57600080fd5b505afa158015610730573d6000803e3d6000fd5b505050506040513d602081101561074657600080fd5b5051600490815560025460408051630240bc6b60e21b8152905160009384936001600160a01b031692630902f1ac9281830192606092829003018186803b15801561079057600080fd5b505afa1580156107a4573d6000803e3d6000fd5b505050506040513d60608110156107ba57600080fd5b50805160208201516040909201516005805463ffffffff191663ffffffff909216919091179055925090506001600160701b0382161580159061080557506001600160701b03811615155b610856576040805162461bcd60e51b815260206004820152601f60248201527f4c65646769747950726963654f7261636c653a204e4f5f524553455256455300604482015290519081900360640190fd5b61087161086283610a1a565b61086b83610a1a565b90610a4c565b51600680546001600160e01b0319166001600160e01b039092169190911790556108a661089d82610a1a565b61086b84610a1a565b51600780546001600160e01b0319166001600160e01b03909216919091179055505050565b6006546001600160e01b031681565b60055463ffffffff1681565b7f000000000000000000000000000000000000000000000000000000000000000081565b60015481565b610918610f85565b6000546001600160a01b0390811691161461097a576040805162461bcd60e51b815260206004820181905260248201527f4f776e61626c653a2063616c6c6572206973206e6f7420746865206f776e6572604482015290519081900360640190fd5b6001600160a01b0381166109bf5760405162461bcd60e51b81526004018080602001828103825260268152602001806111be6026913960400191505060405180910390fd5b600080546040516001600160a01b03808516939216917f8be0079c531659141344cd1fd0a4f28419497f9722a3daafe3b4186f6b6457e091a3600080546001600160a01b0319166001600160a01b0392909216919091179055565b610a22611172565b50604080516020810190915260709190911b6dffffffffffffffffffffffffffff60701b16815290565b610a54611172565b81516001600160e01b0316610a9a5760405162461bcd60e51b81526004018080602001828103825260238152602001806111e46023913960400191505060405180910390fd5b815183516001600160e01b0390811691161415610ac957506040805160208101909152600160701b815261048c565b82516001600160901b036001600160e01b0390911611610b8e57815183516000916001600160e01b03169060701b6dffffffffffffffffffffffffffff191681610b0f57fe5b0490506001600160e01b03811115610b6e576040805162461bcd60e51b815260206004820152601b60248201527f4669786564506f696e743a3a64697675713a206f766572666c6f770000000000604482015290519081900360640190fd5b6040518060200160405280826001600160e01b031681525091505061048c565b6000610bb9600160701b85600001516001600160e01b031685600001516001600160e01b0316610c36565b90506001600160e01b03811115610c17576040805162461bcd60e51b815260206004820152601b60248201527f4669786564506f696e743a3a64697675713a206f766572666c6f770000000000604482015290519081900360640190fd5b60408051602081019091526001600160e01b0390911681529392505050565b6000806000610c458686610f89565b9150915060008480610c5357fe5b868809905082811115610c67576001820391505b918290039181610c8557848381610c7a57fe5b049350505050610cea565b848210610cd9576040805162461bcd60e51b815260206004820152601a60248201527f46756c6c4d6174683a2046554c4c4449565f4f564552464c4f57000000000000604482015290519081900360640190fd5b610ce4838387610fb6565b93505050505b9392505050565b63ffffffff421690565b6000806000610d08610cf1565b9050836001600160a01b0316635909c0d56040518163ffffffff1660e01b815260040160206040518083038186803b158015610d4357600080fd5b505afa158015610d57573d6000803e3d6000fd5b505050506040513d6020811015610d6d57600080fd5b505160408051635a3d549360e01b815290519194506001600160a01b03861691635a3d549391600480820192602092909190829003018186803b158015610db357600080fd5b505afa158015610dc7573d6000803e3d6000fd5b505050506040513d6020811015610ddd57600080fd5b505160408051630240bc6b60e21b81529051919350600091829182916001600160a01b03891691630902f1ac916004808301926060929190829003018186803b158015610e2957600080fd5b505afa158015610e3d573d6000803e3d6000fd5b505050506040513d6060811015610e5357600080fd5b5080516020820151604090920151909450909250905063ffffffff80821690851614610ee05780840363ffffffff8116610e996001600160701b03808616908716611026565b600001516001600160e01b031602870196508063ffffffff16610ece856001600160701b0316856001600160701b0316611026565b516001600160e01b0316029590950194505b5050509193909250565b610ef2611184565b6000821580610f1857505082516001600160e01b031682810290838281610f1557fe5b04145b610f69576040805162461bcd60e51b815260206004820152601960248201527f4669786564506f696e743a3a6d756c3a206f766572666c6f7700000000000000604482015290519081900360640190fd5b60408051602081019091529081529392505050565b5160701c90565b3390565b6000808060001984860990508385029250828103915082811015610fae576001820391505b509250929050565b60008181038216808381610fc657fe5b049250808581610fd257fe5b049450808160000381610fe157fe5b60028581038087028203028087028203028087028203028087028203028087028203028087028203029586029003909402930460010193909302939093010292915050565b61102e611172565b6000821161106d5760405162461bcd60e51b81526004018080602001828103825260268152602001806112286026913960400191505060405180910390fd5b82611087575060408051602081019091526000815261048c565b6001600160901b03831161110357600082607085901b816110a457fe5b0490506001600160e01b03811115610b6e576040805162461bcd60e51b815260206004820152601e60248201527f4669786564506f696e743a3a6672616374696f6e3a206f766572666c6f770000604482015290519081900360640190fd5b600061111484600160701b85610c36565b90506001600160e01b03811115610b6e576040805162461bcd60e51b815260206004820152601e60248201527f4669786564506f696e743a3a6672616374696f6e3a206f766572666c6f770000604482015290519081900360640190fd5b60408051602081019091526000815290565b604051806020016040528060008152509056fe4c65646769747950726963654f7261636c653a20504552494f445f4e4f545f454c41505345444f776e61626c653a206e6577206f776e657220697320746865207a65726f20616464726573734669786564506f696e743a3a64697675713a206469766973696f6e206279207a65726f4c65646769747950726963654f7261636c653a20494e56414c49445f544f4b454e4669786564506f696e743a3a6672616374696f6e3a206469766973696f6e206279207a65726f4c65646769747950726963654f7261636c653a20494e56414c49445f504552494f44a264697066735822122063106690792ef5420d5a5d13b393812506009a5bffb6ff94d3b44500313741b164736f6c634300060c00334669786564506f696e743a3a64697675713a206469766973696f6e206279207a65726f4c65646769747950726963654f7261636c653a20494e56414c49445f504552494f44",
  "devdoc": {
    "kind": "dev",
    "methods": {
      "consult(address,uint256)": {
        "details": "Returns the price of tokens."
      },
      "owner()": {
        "details": "Returns the address of the current owner."
      },
      "renounceOwnership()": {
        "details": "Leaves the contract without owner. It will not be possible to call `onlyOwner` functions anymore. Can only be called by the current owner. NOTE: Renouncing ownership will leave the contract without an owner, thereby removing any functionality that is only available to the owner."
      },
      "transferOwnership(address)": {
        "details": "Transfers ownership of the contract to a new account (`newOwner`). Can only be called by the current owner."
      },
      "tryUpdate()": {
        "details": "Update average price.",
        "returns": {
          "_0": "`true` if update successful; `false` if period has not yet elapsed."
        }
      },
      "update()": {
        "details": "Update average price. Reverts if period has not yet elapsed."
      }
    },
    "version": 1
  },
  "userdoc": {
    "kind": "user",
    "methods": {},
    "version": 1
  },
  "storageLayout": {
    "storage": [
      {
        "astId": 4571,
        "contract": "contracts/LedgityPriceOracle.sol:LedgityPriceOracle",
        "label": "_owner",
        "offset": 0,
        "slot": "0",
        "type": "t_address"
      },
      {
        "astId": 2227,
        "contract": "contracts/LedgityPriceOracle.sol:LedgityPriceOracle",
        "label": "period",
        "offset": 0,
        "slot": "1",
        "type": "t_uint256"
      },
      {
        "astId": 2229,
        "contract": "contracts/LedgityPriceOracle.sol:LedgityPriceOracle",
        "label": "pair",
        "offset": 0,
        "slot": "2",
        "type": "t_contract(IUniswapV2Pair)4145"
      },
      {
        "astId": 2235,
        "contract": "contracts/LedgityPriceOracle.sol:LedgityPriceOracle",
        "label": "price0CumulativeLast",
        "offset": 0,
        "slot": "3",
        "type": "t_uint256"
      },
      {
        "astId": 2237,
        "contract": "contracts/LedgityPriceOracle.sol:LedgityPriceOracle",
        "label": "price1CumulativeLast",
        "offset": 0,
        "slot": "4",
        "type": "t_uint256"
      },
      {
        "astId": 2239,
        "contract": "contracts/LedgityPriceOracle.sol:LedgityPriceOracle",
        "label": "blockTimestampLast",
        "offset": 0,
        "slot": "5",
        "type": "t_uint32"
      },
      {
        "astId": 2241,
        "contract": "contracts/LedgityPriceOracle.sol:LedgityPriceOracle",
        "label": "price0Average",
        "offset": 0,
        "slot": "6",
        "type": "t_struct(uq112x112)488_storage"
      },
      {
        "astId": 2243,
        "contract": "contracts/LedgityPriceOracle.sol:LedgityPriceOracle",
        "label": "price1Average",
        "offset": 0,
        "slot": "7",
        "type": "t_struct(uq112x112)488_storage"
      }
    ],
    "types": {
      "t_address": {
        "encoding": "inplace",
        "label": "address",
        "numberOfBytes": "20"
      },
      "t_contract(IUniswapV2Pair)4145": {
        "encoding": "inplace",
        "label": "contract IUniswapV2Pair",
        "numberOfBytes": "20"
      },
      "t_struct(uq112x112)488_storage": {
        "encoding": "inplace",
        "label": "struct FixedPoint.uq112x112",
        "members": [
          {
            "astId": 487,
            "contract": "contracts/LedgityPriceOracle.sol:LedgityPriceOracle",
            "label": "_x",
            "offset": 0,
            "slot": "0",
            "type": "t_uint224"
          }
        ],
        "numberOfBytes": "32"
      },
      "t_uint224": {
        "encoding": "inplace",
        "label": "uint224",
        "numberOfBytes": "28"
      },
      "t_uint256": {
        "encoding": "inplace",
        "label": "uint256",
        "numberOfBytes": "32"
      },
      "t_uint32": {
        "encoding": "inplace",
        "label": "uint32",
        "numberOfBytes": "4"
      }
    }
  }
}