{
  "address": "0x2b0A1Eed8B39FCFc9E7BD6895a67Be08f442007A",
  "abi": [
    {
      "inputs": [
        {
          "internalType": "uint256",
          "name": "delay",
          "type": "uint256"
        }
      ],
      "stateMutability": "nonpayable",
      "type": "constructor"
    },
    {
      "anonymous": false,
      "inputs": [
        {
          "indexed": true,
          "internalType": "address",
          "name": "previousOwner",
          "type": "address"
        },
        {
          "indexed": true,
          "internalType": "address",
          "name": "newOwner",
          "type": "address"
        }
      ],
      "name": "OwnershipTransferred",
      "type": "event"
    },
    {
      "inputs": [],
      "name": "owner",
      "outputs": [
        {
          "internalType": "address",
          "name": "",
          "type": "address"
        }
      ],
      "stateMutability": "view",
      "type": "function"
    },
    {
      "inputs": [],
      "name": "renounceOwnership",
      "outputs": [],
      "stateMutability": "nonpayable",
      "type": "function"
    },
    {
      "inputs": [
        {
          "internalType": "uint256",
          "name": "delay",
          "type": "uint256"
        }
      ],
      "name": "setDelay",
      "outputs": [],
      "stateMutability": "nonpayable",
      "type": "function"
    },
    {
      "inputs": [
        {
          "internalType": "address",
          "name": "newOwner",
          "type": "address"
        }
      ],
      "name": "transferOwnership",
      "outputs": [],
      "stateMutability": "nonpayable",
      "type": "function"
    },
    {
      "inputs": [],
      "name": "unlockAt",
      "outputs": [
        {
          "internalType": "uint256",
          "name": "",
          "type": "uint256"
        }
      ],
      "stateMutability": "view",
      "type": "function"
    },
    {
      "inputs": [
        {
          "internalType": "address",
          "name": "token",
          "type": "address"
        },
        {
          "internalType": "uint256",
          "name": "amount",
          "type": "uint256"
        }
      ],
      "name": "withdraw",
      "outputs": [],
      "stateMutability": "nonpayable",
      "type": "function"
    }
  ],
  "transactionHash": "0x5104906bf0c9086522f2d71993ee997d6279dbefd6b9706d0fa5cbd2fd52e28d",
  "args": [
    157788000
  ],
  "solcInputHash": "56b313b1f533185b94c24c745cec7b90",
  "bytecode": "0x608060405234801561001057600080fd5b506040516107aa3803806107aa8339818101604052602081101561003357600080fd5b5051600061003f6100a9565b600080546001600160a01b0319166001600160a01b0383169081178255604051929350917f8be0079c531659141344cd1fd0a4f28419497f9722a3daafe3b4186f6b6457e0908290a3506100a081426100ad60201b6104301790919060201c565b6001555061010e565b3390565b600082820183811015610107576040805162461bcd60e51b815260206004820152601b60248201527f536166654d6174683a206164646974696f6e206f766572666c6f770000000000604482015290519081900360640190fd5b9392505050565b61068d8061011d6000396000f3fe608060405234801561001057600080fd5b50600436106100625760003560e01c8063715018a6146100675780638da5cb5b14610071578063aa5dec6f14610095578063e177246e146100af578063f2fde38b146100cc578063f3fef3a3146100f2575b600080fd5b61006f61011e565b005b6100796101c0565b604080516001600160a01b039092168252519081900360200190f35b61009d6101cf565b60408051918252519081900360200190f35b61006f600480360360208110156100c557600080fd5b50356101d5565b61006f600480360360208110156100e257600080fd5b50356001600160a01b0316610287565b61006f6004803603604081101561010857600080fd5b506001600160a01b03813516906020013561037f565b610126610491565b6000546001600160a01b03908116911614610176576040805162461bcd60e51b81526020600482018190526024820152600080516020610610833981519152604482015290519081900360640190fd5b600080546040516001600160a01b03909116907f8be0079c531659141344cd1fd0a4f28419497f9722a3daafe3b4186f6b6457e0908390a3600080546001600160a01b0319169055565b6000546001600160a01b031690565b60015481565b6101dd610491565b6000546001600160a01b0390811691161461022d576040805162461bcd60e51b81526020600482018190526024820152600080516020610610833981519152604482015290519081900360640190fd5b600154421015610277576040805162461bcd60e51b815260206004820152601060248201526f151a5b595b1bd8dace881b1bd8dad95960821b604482015290519081900360640190fd5b6102814282610430565b60015550565b61028f610491565b6000546001600160a01b039081169116146102df576040805162461bcd60e51b81526020600482018190526024820152600080516020610610833981519152604482015290519081900360640190fd5b6001600160a01b0381166103245760405162461bcd60e51b81526004018080602001828103825260268152602001806105ea6026913960400191505060405180910390fd5b600080546040516001600160a01b03808516939216917f8be0079c531659141344cd1fd0a4f28419497f9722a3daafe3b4186f6b6457e091a3600080546001600160a01b0319166001600160a01b0392909216919091179055565b610387610491565b6000546001600160a01b039081169116146103d7576040805162461bcd60e51b81526020600482018190526024820152600080516020610610833981519152604482015290519081900360640190fd5b600154421015610421576040805162461bcd60e51b815260206004820152601060248201526f151a5b595b1bd8dace881b1bd8dad95960821b604482015290519081900360640190fd5b61042c823383610495565b5050565b60008282018381101561048a576040805162461bcd60e51b815260206004820152601b60248201527f536166654d6174683a206164646974696f6e206f766572666c6f770000000000604482015290519081900360640190fd5b9392505050565b3390565b604080516001600160a01b038481166024830152604480830185905283518084039091018152606490920183526020820180516001600160e01b031663a9059cbb60e01b178152925182516000946060949389169392918291908083835b602083106105125780518252601f1990920191602091820191016104f3565b6001836020036101000a0380198251168184511680821785525050505050509050019150506000604051808303816000865af19150503d8060008114610574576040519150601f19603f3d011682016040523d82523d6000602084013e610579565b606091505b50915091508180156105a75750805115806105a757508080602001905160208110156105a457600080fd5b50515b6105e25760405162461bcd60e51b81526004018080602001828103825260288152602001806106306028913960400191505060405180910390fd5b505050505056fe4f776e61626c653a206e6577206f776e657220697320746865207a65726f20616464726573734f776e61626c653a2063616c6c6572206973206e6f7420746865206f776e65725361666545524332303a3a736166655472616e736665723a207472616e73666572206661696c6564a264697066735822122055839e0ed77d3a428b2ed90323f612978fb81607deb6cf5e56ef6cf0e5e6620c64736f6c634300060c0033",
  "devdoc": {
    "kind": "dev",
    "methods": {
      "owner()": {
        "details": "Returns the address of the current owner."
      },
      "renounceOwnership()": {
        "details": "Leaves the contract without owner. It will not be possible to call `onlyOwner` functions anymore. Can only be called by the current owner. NOTE: Renouncing ownership will leave the contract without an owner, thereby removing any functionality that is only available to the owner."
      },
      "transferOwnership(address)": {
        "details": "Transfers ownership of the contract to a new account (`newOwner`). Can only be called by the current owner."
      }
    },
    "version": 1
  },
  "userdoc": {
    "kind": "user",
    "methods": {},
    "version": 1
  },
  "storageLayout": {
    "storage": [
      {
        "astId": 4571,
        "contract": "contracts/Timelock.sol:Timelock",
        "label": "_owner",
        "offset": 0,
        "slot": "0",
        "type": "t_address"
      },
      {
        "astId": 3175,
        "contract": "contracts/Timelock.sol:Timelock",
        "label": "unlockAt",
        "offset": 0,
        "slot": "1",
        "type": "t_uint256"
      }
    ],
    "types": {
      "t_address": {
        "encoding": "inplace",
        "label": "address",
        "numberOfBytes": "20"
      },
      "t_uint256": {
        "encoding": "inplace",
        "label": "uint256",
        "numberOfBytes": "32"
      }
    }
  }
}